:02000000ff00ff
:080002004c6174746963650030
:17000a00694345637562653220323031372e30382e32373934300069
:16002100506172743a2069434534304858344b2d545131343400f9
:1a003700446174653a204f6374203720323031382030333a32333a343400ab
:0200510000ffae
:040053007eaa997e6a
:02005700510056
:0200590001059f
:03005b00920020f0
:03005e00620367d3
:0300610072011019
:0300640082000017
:02006700110086
:02006900010193
:20006b000000000000000000000000000000000000000000000000800000000000000000f5
:20008b0000000000080000000000000000000000000000000000000000000000000000004d
:2000ab00000000000000000000000000000000000000000200000000000000000000000033
:0d00cb000000000000000000000000000028
:2000d800000000000000000000000000000000000000000000000000000000000000000008
:2000f800000000000000d00000000000000000000000000000000000000000000000000018
:200118000000000000000000000000000000000000000001c0000000000000000000000006
:0d01380000000000000000000000000000ba
:2001450000000000000000000000000000000000000000000000004000000000000000005a
:20016500000000000400000000000000000000000000000000000000000000000000000076
:20018500000000000000000000000000000000000000000000000000000000000000000159
:0d01a5000000000000000400000000000049
:2001b20000000000000000000000000000000000000000000000000000000000000000002d
:2001d20000000000000000000000000000000000000000000000000000000000000000000d
:2001f2000000000000000000000000000000000000000000000000000000000000000000ed
:0d02120000000000000000000000000000df
:20021f0000000000000000000000000000000000000000000000008000000000000000003f
:20023f00000000000800000030000000000000000000000000000000000000000000000067
:20025f0000000000000000000000000000000000000000000000000000000000000000007f
:0d027f000000000000000000000000000072
:20028c0000000000000000000000000000000000000000000000000000000300000000004f
:2002ac00000000000000000030000000000000000000000000000000000000000000000002
:2002cc00000000000000000000000000000000000000000000000000000000000000000012
:0d02ec0000001000000000000000000000f5
:2002f9000000000000000000000000000000000000000000000000000000000000000000e5
:200319000000000000000000000000000000000000000000000000000000000000000000c4
:200339000000000000000000000000000000000000000000000000000000000000000001a3
:0d0359000000000000000400b000000000e3
:200366000000000000000000000000000000000000000000000000000780000000000000f0
:20038600000000000000000000000000000000000000000000000000000000000000000057
:2003a600000000000000000000000000000000000000000000000000000000000000000235
:0d03c600000000000000000000000000002a
:2003d300000000000000000000000000000000000000000000000000000200000000000008
:2003f30000000000000000000000000000000000000000000000000000000080000000006a
:200413000000000000000000000000000000000000000000000000000000000000000000c9
:0d04330000000400000000000000000000b8
:2004400000000000000000000000000000000000000000000000000000000000000000009c
:2004600000000000000000000000000000000000000000000000000000000000000000007c
:2004800000000000000000000000000000000000000000000000000000000001000000005b
:0d04a000000000000000000000000000004f
:2004ad0000000000000000000000000000000000000000000000000000000100000000002e
:2004cd0000000000000000000000000000000000000000000000000000000000000000000f
:2004ed000000000000000000000000000000000000000000000030000000000000000000bf
:0d050d0000000400000000000000080000d5
:20051a0000000000000000000000000000000000000000000000008000000200000000003f
:20053a000000000000000000000000000000000000000000000000000000000000000000a1
:20055a0000000000000000000000000000000000000000000000300000000002000000004f
:0d057a000000000000000000000004000070
:200587000000000000000000000000000000000000000000000000000780000000000000cd
:2005a700000000000000000000000000000000000000000000000000000000000000000034
:2005c700000000000000000000000000000000000000000000000000000000000000000014
:0d05e70000000800000000000010000000ef
:2005f400000000000000000000000000000000000000000000000040008000000000000027
:200614000000000000000000000000000000000000000000000000000000000000000000c6
:200634000000000000000000000000000000000000000000000000000000000000000000a6
:0d0654000000040000000000000000000095
:20066100000000000000000000000000000000000000000000000000000100000000000078
:20068100000000000000001000000000000000000000000000000000000000000000000049
:2006a100000000000000000000000000000000000000000000000000000000000000000039
:0d06c1000000040000000000000000000028
:2006ce0000000000000000000000000000000000000000000000008000000000000000008c
:2006ee000000000000000000000000000000000000000000000000000000000000000000ec
:20070e000000000000000000000000000000000000000000000000000000000000000000cb
:0d072e0000000400000000000010000000aa
:20073b0000000000000000000000000000000000000000000000000000000000000000009e
:20075b0000000000000000000000000000000000000000000000000000000000000000007e
:20077b0000000000000000000000000000000000000000000000000000000000000000005e
:0d079b000000000000000000000000000051
:2007a800000000000000000000000000000000000000000000000000000000000000000031
:2007c800000000000000000000000000000000000000000000000000000000000000000011
:2007e8000000000000000000000000000000000000000000000000000000000000000000f1
:0d08080000000000000000000000000000e3
:200815000000000000000000000000000000000000000000000000000000000000000000c3
:200835000000000000000000000000000000000000000000000000000000000000000000a3
:20085500000000000000000000000000000000000000000000000000000000000000000083
:0d0875000000000000000000000000000076
:20088200000000000000000000000000000000000000000000000000000000000000000056
:2008a200000000000000000000000000000000000000000000000000000000000000000036
:2008c200000000000000000000000000000000000000000000000000000000000000000016
:0d08e2000000000000000000000000000009
:2008ef000000000000000000000000000000000000000000000000000000000000000000e9
:20090f000000000000000000000000000000000000000000000000000000000000000000c8
:20092f000000000000000000000000000000000000000000000000000000000000000000a8
:0d094f00000000000000000000000000009b
:20095c0000000000000000000000000000000000000000000000000000000000000000007b
:20097c0000000000000000000000000000000000000000000000000000000000000000005b
:20099c0000000000000000000000000000000000000000000000000000000000000000003b
:0d09bc00000000000000000000000000002e
:2009c90000000000000000000000000000000000000000000000000000000000000000000e
:2009e9000000000000000000000000000000000000000000000000000000000000000000ee
:200a09000000000000000000000000000000000000000000000000000100000000000000cc
:0d0a290000000000000000000000000000c0
:200a36000000000000000000000000000000000000000000000000000000000000000000a0
:200a5600000000000000000000000000000000000000000000000000000000000000000080
:200a760000000000000000000000000000000000000000000000000001000000000000005f
:0d0a96000000000000000000000000000053
:200aa300000000000000000000000000000000000000000000000000000000000000000033
:200ac300000000000000000000000000000000000000000000000000000000000000000013
:200ae3000000000000000000000000000000000000000000000000000000000000000000f3
:200e0b000000000000000000000000000000000000000000000002000000000000000000c5
:200e2b000000000000000000000000000000000000000000000000000000000000000000a7
:200e4b00000000000000000000000000000000000000000000000000000000000000000087
:0d0e6b00000000000000000000000000007a
:200e780000000000000000000000000000000000000000000000000000000000000000005a
:200e980000000000000000000000000000000000000000000000000000000000000000003a
:200eb80000000000000000000000000000000000000000000000000000000000000000001a
:0d0ed800000000000000000000000000000d
:200ee5000000000000000000000000000000000000000000000000000000000000000000ed
:200f05000000000000000000000000000000000000000000000000000000000000000000cc
:200f250000000000000000000000001000000000000000000000000000000000000000009c
:0d0f4500000000000000000000000000009f
:200f520000000000000000000000000000000000000000000000000000000000000000007f
:200f720000000000000000000000000000000000000000000000000000000000000000005f
:200f920000000000000000000000001000000000000000000000000000000000000000002f
:0d0fb2000000000000000000000000000032
:200fbf00000000000000000000000000000000000000000000000000000000000000000012
:200fdf000000000000000000000000000000000000000000000000000000000000000000f2
:200fff000000000000000000000000000000000000000000000000000000000000000000d2
:2014010000000000000000000000000000000000005000000000000000000000000000007b
:201421000000000000000000000000000000000000000000000000000000000000000000ab
:2014410000000000000000000000000000000000000000000000000000000000000000008b
:0d146100000000000000000000000000007e
:20146e0000000000000000000000000000000000002000000000000000000000000000003e
:20148e0000000000000000000000000000000000000000000000000000000000000000003e
:2014ae0000000000000000000000000000000000000000000000000000000000000000001e
:0d14ce000000000000000000000000000011
:2014db000000000000000000000000000000000000000000000000000000000000000000f1
:2014fb000000000000000000000000000000000000000000000000000000000000000000d1
:20151b000000000000000000000000000000000000000000000000000000000000000000b0
:0d153b0000000000000000000000000000a3
:20154800000000000000000000000000000000000000000000000000000000000000000083
:20156800000000000000000000000000000000000000000000000000000000000000000063
:20158800000000000000000000000000000000000000000000000000000000000000000043
:0d15a8000000000000000000000000000036
:2015b500000000000000000000000000000000000000000000000000000000000000000016
:2015d5000000000000000000000000000000000000000000000000400000000000000000b6
:2015f5000000000000000000000000000000000000000000000000000000000000000000d6
:0d16150000000000000000000000000000c8
:201622000000000000000000000000000000000000000000000000000000000000000000a8
:20164200000000000000000000000000000000000000000000000000000000000000000088
:20166200000000000000000000000000000000000000000000000000000000000000000068
:0d168200000000000000000000000000005b
:20168f0000000000000000000000000000000000000000000000000000000000000000003b
:2016af0000000000000000000000000000000000000000000000000000000000000000001b
:2016cf000000000000000000000000000000000000000000000000000000000000000000fb
:0d16ef0000000000000000000000000000ee
:2016fc000000000000000000000000000000000000000000000000000000000000000000ce
:20171c000000000000000000000000000000000000000000000000000000000000000000ad
:20173c0000000000000000000000000000000000000000000000000000000000000000008d
:0d175c000000000000000000000000000080
:20176900000000000000000000000000000000000000000000000000000000000000000060
:20178900000000000000000000000000000000000000000000000000000000000000000040
:2017a900000000000000000000000010000000000000000000000000000000000000000010
:0d17c9000000000000000000000000000013
:2017d6000000000000000000000000000000000000000000000000000000000000000000f3
:2017f6000000000000000000000000000000000000000000000000000000000000000000d3
:201816000000000000000000000000100000000000000000000000000000000000000000a2
:0d18360000000000000000000000000000a5
:2018430000000000000000000000000000000000000000000000000000000000000800007d
:20186300000000000000000000000000000000000000000000000000000000000000000065
:20188300000000000000000000000000000000000000000000000000000000000000000045
:0d18a3000000000000000000000000000038
:2018b000000000000000000000000000000000000000000000000000000000000000000018
:2018d0000000000000000000000000000000000000000000000000000000000000000000f8
:2018f0000000000000000000000000000000000000000000000000000000000000000000d8
:0d19100000000000000000000000000000ca
:20191d000000000000000000000000000000000000000000000000000000000000000000aa
:20193d0000000000000000000000000000000000000000000000000000000000000000008a
:20195d0000000000000000000000000000000000000000000000000000000000000000006a
:0d197d00000000000000000000000000005d
:20198a0000000000000000000000000000000000000000000000000000000000000000003d
:2019aa0000000000000000000000000000000000000000000000000000000000000000001d
:2019ca000000000000000000000000000000000000000000000000000000000000000000fd
:0d19ea0000000000000000000000000000f0
:2019f7000000000000000000000000000000000000000000000000000000000000000000d0
:201a17000000000000000000000000000000000000000000000000000000000000000000af
:201a370000000000000000000000000000000000000000000000000000000000000000008f
:0d1a57000000000000000000000000000082
:201a6400000000000000000000000000000000000000000000000040000000000000000022
:201a8400000000000000000000000000000000000000000000000000000000000000000042
:201aa400000000000000000000000000000000000000000000000000000000000000000022
:0d1ac4000000000000000000000000000015
:201ad1000000000000000000000000000000000000000000000000000000000000000000f5
:201af1000000000000000000000000000000000000000000000000000000000000000000d5
:201b11000000000000000000000000000000000000000000000000000000000000000000b4
:0d1b310000000000000000000000000000a7
:201b3e00000000000000000000000000000000000000000000000000000000000000000087
:201b5e00000000000000000000000000000000000000000000000000000000000000000067
:201b7e00000000000000000000000000000000000000000000000000000000000000000047
:0d1b9e00000000000000000000000000003a
:201bab0000000000000000000000000000000000000000000000000000000000000000001a
:201bcb000000000000000000000000000000000000000000000000080000000000000000f2
:201beb000000000000000000000000000000000000000000000000000000000000000000da
:0d1c0b0000000000000000000000000000cc
:201c18000000000000000000000000000000000000000000000000000000000000000000ac
:201c380000000000000000000000000000000000000000000000001000000000000000007c
:201c580000000000000000000000000000000000000000000000000000000000000000006c
:0d1c7800000000000000000000000000005f
:201c850000000000000000000000000000000000000000000000000000000000000000003f
:201ca50000000000000000000000000000000000000000000000000000000000000000001f
:201cc5000000000000000000000000000000000000000000000000000000000000000000ff
:0d1ce50000000000000000000000000000f2
:201cf2000000000000000000000000000000000000000000000000000000000000000000d2
:201d12000000000000000000000000000000000000000000000000000000000000000000b1
:201d3200000000000000000000000000000000000000000000000000000000000000000091
:0d1d52000000000000000000000000000084
:201d5f00000000000000000000100000000000000000000000000000000000000000000054
:201d7f00000000000000000000000000000000000000000000000000000000000000000044
:201d9f000000000000000000000000000000000000002800000000000000000000000000fc
:0d1dbf000000000000000000000000000017
:201dcc000000000000000000000000000000000000000000000000000000000000000000f7
:201dec000000000000000000000000000000000000000000000000000000000000000000d7
:201e0c000000000000000000000000000000000000001000000000000000000000000000a6
:0d1e2c0000000000000000000000000000a9
:201e3900000000000000000000000000000000000000000000000000000000000000000089
:201e5900000000000000000000000000000000000000000000000000000000000000000069
:201e7900000000000000000000000000000000000000000000000000000000000000000049
:0d1e9900000000000000000000000000003c
:201ea60000000000000000000000000000000000000000000000000000000000000000001c
:201ec6000000000000000000000000000000000000000000000000000000000000000000fc
:201ee6000000000000000000000000000000000000000000000000000000000000000000dc
:0d1f060000000000000000000000000000ce
:201f13000000000000000000000000000000000000000000000000000000000000000000ae
:201f330000000000000000000000000000000000000000000000000000000000000200008c
:201f530000000000000000000000000000000000000000000000000000000000000000006e
:0d1f73000000000000000000000000000061
:201f8000000000000000000000000000000000000000000000000040000000000000000001
:201fa000000000000000000000000000000000000000000000000000000000000000000021
:201fc000000000000000000000000000000000000000000000000000000000000000000001
:0d1fe00000000000000000000000000000f4
:201fed000000000000000000000000000000000000000000000000000000000000000000d4
:20200d00000000000000000000000000000000000000400000000000000000000000000073
:20202d00000000000000000000000000000000000000000000000000000000000000000093
:0d204d000000000000000000000000000086
:20205a00000000000000000000000000000000000000000000000000000000000000000066
:20207a00000000000000000000000000000000000000200000000000000000000000000026
:20209a00000000000000000000000000000000000000000000000000000000000000000026
:0d20ba000000000000000000000000000019
:2020c7000000000000000000000000000000000000000000000000000000000000000000f9
:2020e7000000000000000000000000000000000000000000000000000000000000000000d9
:202107000000000000000000000000000000000000000000000000000000000000000000b8
:0d21270000000000000000000000000000ab
:2021340000000000000000000000000000000000000000000000000000000000000000008b
:2021540000000000000000000000000000000000000000000000000000000000000000006b
:2021740000000000000000000000000000000000000000000000000000000000000000004b
:0d219400000000000000000000000000003e
:2021a10000000000000000000000000000000000000000000000000000000000000000001e
:2021c1000000000000000000000000000000000000000000000000000000000000000000fe
:2021e1000000000000000000000000000000000000000000000000000000000000000000de
:0d22010000000000000000000000000000d0
:20220e000000000000000000000000000000000000000000000000000000000000000000b0
:20222e00000000000000000000000000000000000000000000000000000000000000000090
:20224e00000000000000000000000000000000000000000000000000000000000000000070
:0d226e000000000000000000000000000063
:20227b00000000000000000000000000000000000000000000000000000000000000000043
:20229b00000000000000000000000000000000000000000000000000000000000000000023
:2022bb00000000000000000000000000000000000000000000000000000000000000000003
:0d22db0000000000000000000000000000f6
:2022e8000002000000000000000000000000000000000000000000000000000000000000d4
:202308000000000000000000000000000000000000000000000000000000000000000000b5
:20232800000000000000000000000000000000000000000000000000000000000000000095
:0d2348000000000000000000000000000088
:20235500000000000000000000000000000000000000000000000000000000000000000068
:20237500000000000000000000000000000000000000000000000000000000000000000048
:20239500000000000000000000000000000000000000000000000000000000000000000028
:0d23b500000000000000008000000000009b
:2023c2000000000000000000000000000000000000000000000000000000000000000000fb
:2023e2000000000000000000000000000000000000000000000000000000000000000000db
:202402000000000000000000000000000000000000000000000000000000000000000000ba
:0d24220000000000000000000000000000ad
:20242f0000000000000000000000000000000000000000000000000000000000000000008d
:20244f0000000000000000000000000000000000000000000000000000000000000000006d
:20246f0000000000000000000000000000000000000000000000000000000000000000004d
:0d248f000000000000000000000000000040
:20249c00000000000000000000100000000000000000000000000000000000000000000010
:2024bc00000000000000000000000000000000000000000000000000000000000000000000
:2024dc000000000000000000000000000000000000000000000000000000000000000000e0
:0d24fc0000000000000000000000000000d3
:202509000002000000000000000000000000000000000000000000000000000000000000b0
:20252900000000000000000000000000000000000000000000000000000000000000000092
:20254900000000000000000000000000000000000000400000000000000000000000000032
:0d2569000000000000000000000000000065
:20257600000000000000000000000000000000000000000000000000000000000000000045
:20259600000000000000000000000000000000000000000000000000000000000000000025
:2025b6000000000000000000000000000000000000004000000000000000000000000000c5
:0d25d60000000000000000000000000000f8
:2025e300400000000000000000000000000000000000000000000000000000000000000098
:202603000000000000000000000000000000000000000000000000000000000000020000b5
:20262300000000000000000000000000000000000000000000000000000000000000000097
:0d264300000000000000000000000000008a
:2026500000000000000000000000000000000000000000000000000000000000000000006a
:2026700000000000000000000000000000000000000000000000000000000000000000004a
:2026900000000000000000000000000000000000000000000000000000000000000000002a
:0d26b000000000000000000000000000001d
:2026bd000000000000000000000000000000000000000000000000000000000000000000fd
:2026dd000000000000000000000000000000000000000000000000000000000000000000dd
:2026fd0000000000000000000000000000000000000000000000000000014000000000007c
:0d271d0000000000000000000000000000af
:20272a0000000000000000000000000000000000000000000000000000000000000000008f
:20274a0000000000000000000000000000000000000000000000000000000000000000006f
:20276a00000000000000000000000000e000000000000000000000000000800000000000ef
:0d278a000000000000000000000000000042
:20279700000000000000000000000000000000000000000000000000000000000000000022
:2027b700000000000000000000000000000000000000000000000000000000000000000002
:2027d7000000000000000000000000000000000000000000000000000000000000000000e2
:0d27f70000000000000000000000000000d5
:20280400800000000000000000000000000000000000000000000000000000000000000034
:20282400000000000000000000000000000000000000000000000000000000000000000094
:20284400000000000000000000000000000000000000000000000000000000000000000074
:0d2864000000000000000000000000000067
:20287100000000000000000000000000000000000000000000000000000000000000000047
:20289100000000000000000000000000000000000000000000000000000000000000000027
:2028b100000000000000000000000000000000000000000000000000000000000000000007
:0d28d10000040000000000000000000000f6
:2028de000000000000000000000000000000000000000000000000000000000000000000da
:2028fe000000000000000000000000000000000000000000000000000000000000000000ba
:20291e00000000000000000000000000000000000000100000000000000000000000000089
:0d293e00000000000000000000000000008c
:20294b004038000000000000000000000000000000000000000000000000000000000000f4
:20296b0000000000000000000000000000000000000000000000000000000000000000004c
:20298b0000000000000000000000000000000000000000000000000000000000000000002c
:0d29ab00000000000000000000000000001f
:2029b8000002000000000000000000000000000000000000000000000000000000000000fd
:2029d8000000000000000000000000000000000000000000000000000000000000000000df
:2029f8000000000000000000000000000000000000000000000000000000000000000000bf
:0d2a180000000000000000000000000000b1
:202a2500000000000000000000000000000000000000000000000000000000000000000091
:202a4500000000000000000000000000000000000000000000000000000000000000000071
:202a6500000000000000000000000000000000000000000000000000000000000000000051
:0d2a85000000000000000000000000000044
:202a92008000000000000000000000000000000000000000000000000000000000000000a4
:202ab200000000000000000000000000000000000000000000000000000000000000000004
:202ad2000000000000000000000000000000000000000000000000000000000000000000e4
:0d2af20000000000000000000000000000d7
:202aff0088000000000000000000000000000000000000000000000000000000000000002f
:202b1f00000000000000000000000000000000000000000000000000000000000000000096
:202b3f00000000000000000000000000000000000000000000000000000000000000000076
:0d2b5f000000000000000000000000000069
:202b6c000e000000000000000000000000000000000000000000000000000000000000003b
:202b8c00000000001000000000000000000000000000000000000000000000000000000019
:202bac00000000000000000000000000000000000000000000000000000000000000000009
:0d2bcc0000000000000000000000000000fc
:202bd900000700000000000000000000000000000080000000000000000000000000000055
:202bf9000000000000000000000000000000000000000000000000000000000000000000bc
:202c190000000000000000000000000000000000000000000000000000000000000000009b
:0d2c3900000000000000000000000000008e
:202c4600002800000000000000000000000000000000000000000000000000000000000046
:202c660000000000000000000000000000000000000000000000000000000000000000004e
:202c860000000000000000000000000000000000000000000000000000000000000000002e
:0d2ca6000000000000000000000000000021
:202cb300000000000000000000000000000000000000000000000000000000000000000001
:202cd3000000000000000000000000000000000000000000000000000000000000000000e1
:202cf3000000000000000000000000000000000000000000000000000200000000000000bf
:0d2d130000000000000000000000000000b3
:202d2000800000000000000000000000000000000000000000000000000000000000000013
:202d4000000000000000000000000000000000000000000000000000000000000000000073
:202d6000000000000000000000000000000000000000000000000000000000000000000053
:0d2d80000000000000000000000000000046
:202d8d00000000000000000000000000000000000000000000000000000000000000000026
:202dad00000000000000000000000000000000000000000000000000000000000000000006
:202dcd000000000000000000000000000000000000000000000000000000000000000000e6
:0d2ded0000000000000000000000000000d9
:202dfa000000000000000000000000000000000000000000000000000000000000000000b9
:202e1a00000000000000000000000000000000000000000000000000000000000000000098
:202e3a00000000000000000000000000000000000000000000000000000000000000000078
:0d2e5a00000000000000000000000000006b
:202e670000000000000000000000000000000000000000000000000000000000000000004b
:202e870000000000000000000000000000000000000000000000000000000000000000002b
:202ea70000000000000000000000000000000000000000000000000000000000000000000b
:0d2ec70000000000000000000000000000fe
:202ed40080000000000000000000000000000000000000000000000000000000000000005e
:202ef4000000000000000000000000000000000000000000000000000000000000000000be
:202f140000000000000000000000000000000000000000000000000000000000000000009d
:0d2f34000000000000000000000000000090
:202f4100000000000000000000000000000000000000000000000000000000000000000070
:202f6100000000000000000000000000000000000000000000000000000000000000000050
:202f8100000000000000000000000000000000000000000000000000000000000000000030
:0d2fa1000000000000000000000000000023
:202fae00000000000000000000000000000000000000000000000000000000000000000003
:202fce000000000000000000000000000000000000000000000000000000000000000000e3
:202fee000000000000000000000000000000000000000000000000000000000000000000c3
:0d300e0000000000000000000000000000b5
:20301b00000000000000000000000000000000000000000000000000000000000000000095
:20303b00000000000000000000000000000000000000000000000000000000000000000075
:20305b00000000000000000000000000000000000000000000000000000000000000000055
:0d307b000000000000002001c00000000067
:20308800000000000000000000000000000000000000000000000000000000000000000028
:2030a800000000000000000000000000000000000000000000000000000000000000000008
:2030c8000000000000000000000000000000000000000000000000000000000000000000e8
:0d30e80000000000000000002000000000bb
:2030f5000000000000000000000000000000000000000000000000000000000000000000bb
:20311500000000000000000000000080000006bc1010000000000000000000000000000038
:2031350000000000000000000000000000000000000000000000000000000000000000007a
:0d315500000000000000000000000000006d
:2031620000000000000000000000000000000000000000000000000000000000000000004d
:203182000000000000000000000000000000003c30000000000000000000000000000000c1
:2031a200000000000000000000000000000000000000000000000000000000000000000409
:0d31c2000000000000000000000000000000
:2031cf000000000000000000000000000000000000000000000000000000000000000000e0
:2031ef000000000000000000000000000000000000000000000000000000000000000000c0
:20320f0000000000000000000000001000000000000000000000000000000000000000048b
:0d322f0000000000000010000025ea001063
:20323c00000000000000000000000000000000000000000000000000000000000000000072
:20325c00000000000000000000000000000000000000000000000000000000000000000052
:20327c0000000000000000000000000000000000000000000000000000000000000000042e
:0d329c000000000000001000001c0f50009a
:2032a9000000000000000000000000000000000040000000000000000000000000000000c5
:2032c9000000000000000000000000000300000000000000000000000000000000000000e2
:2032e9000000000000000000000000000000000000000000000000000000000000000004c1
:0d33090000000000000000000000000000b7
:20331600000000000000000000000000000000004000000000000000000000000000000057
:203336000000000000000000000000000080000000000000000000000000000000000000f7
:20335600000000000000000000000000000000000000000000000000000000000000000057
:0d337600000000000000000000000000004a
:2033830000000000000000000000000000000000000000000000000000000000000000002a
:2033a30000000000000000000000000000000000000000000000000000000000000000000a
:2033c3000000000000000000000000000000000000000000000000000020000000000000ca
:0d33e30000000000000000000000000000dd
:2033f0000000000000000000000000000000000000000000000000000000000000000000bd
:2034100000000000000000000000000000000000000000000000000000000000000000009c
:2034300000000000000000000000000000000000000000000000000000000000000000007c
:0d345000000000000000000000000000006f
:20345d0000000000000000000000000000000000000000000000000000000000000000004f
:20347d000000000000000000000000000000000000000000000000400000000000000000ef
:20349d0000000000000000000000000000000000000000000000000000800000000000008f
:0d34bd000000000000000000000000000002
:2034ca000000000000000000000000000000000000000000000000000000000000000000e2
:2034ea000000000000000000000000000000000000000000000000000000000000000000c2
:20350a000000000000000000000000000000000000000000000000000000000000000000a1
:0d352a000000000000000000000000000094
:20353700000000000000000000000000000000000000000000000000000000000000000074
:20355700000000000000000000000000000000000000000000000000000000000000000054
:20357700000000000000000000000000000000000000000000000000000000000000000034
:0d3597000000000000000000000000000027
:2035a400000000000000000000000000000000000000000000000000000000000000000007
:2035c4000000000000000000000000000000000000000000000000000000000000000000e7
:2035e4000000000000000000000000000000000000000000000000000000000000000000c7
:0d36040000040000000000000000000000b5
:20361100000000000000000000000000000000000000000000000000000000000000000099
:20363100000000000000000000000300000000000000000000000000000000000000000076
:20365100000000000000000000000000000000000000000000000000002000000000000039
:0d3671000000000000000a00400000000002
:20367e0000000000000000000000000000000000000000000000000000000000000000002c
:20369e0000000000000000000000000000000000000000000000000000000000000000000c
:2036be000000000000000000000000000000000000000000000000000040000000000000ac
:0d36de000000000000000402400000000099
:2036eb000000000000000000000000000000000000000000000000000000000000000000bf
:20370b0000000000000000000000000000000000000000000000000000000000000000009e
:20372b0000000000000000000000000000000000000000000000000000000000000000007e
:0d374b000000000000000000000000000071
:20375800000000000000000000000000000000000000000000000000000000000000000051
:20377800000000000000000000000000000000000000000000000000000000000000000031
:2037980000000000000000000000000000038000000000000000000000000000000000008e
:0d37b8000000000000000000000000000004
:2037c5000000000000000000000000000000000000000000000000000000000000000000e4
:2037e5000000000000000000000000000000000000000000000000000000000000000000c4
:20380500000000000000000000000060000001af040000000000000000000000000000008f
:0d3825000000000000000000000000000096
:20383200000000000000000000000000000000000000000000000000000000000000000076
:20385200000000000000000000000000000000000000000000000000000000000000000056
:203872000000000000000000000000800000000f0410000000000000000000000000000093
:0d3892000000000000000000000000000029
:20389f00000000000000000000000000000000000000000000000000000000000000000009
:2038bf000000000000000000000000000000000000000000000000000000000000000000e9
:2038df00000000000000000000000040000300000000000000000000000000000000000086
:0d38ff0000000000000000000000000000bc
:20390c0000000000000000000000000000000000000000000000000000000000000000009b
:20392c0000000000000000000000000000000000000000000000000000000000000000007b
:20394c000000000000000000000000c000000000000000000000000000000000000000009b
:0d396c00000000000000000000000000004e
:2039790000000000000000000000000000000000000000000000000000000000000000002e
:2039990000000000000000000000000000000000000000000000000000000000000000000e
:2039b90000000000000000000000000000600000000000000000000000000000000000008e
:0d39d90000000000000000000000000000e1
:2039e6000000000000000000000000000000000000000000000000000000000000000000c1
:203a06000000000000000000000000000000000000000000000000000000000000000000a0
:203a2600000000000000000000000000000000000000000000000000000000000000000080
:0d3a46000000000000000000000000000073
:203a5300000000000000000000000000000000000000000000000000000000000000000053
:203a7300000000000000000000000000000000000000000000000000000000000000000033
:203a9300000000000000000000000000000000000000000000000000000000000000000013
:0d3ab3000000000000000000000000000006
:203ac0000000000000000000000000000000000000000000000000000000000000000000e6
:203ae0000000000000000000000000040000000000000000000000001000000000000000b2
:203b0000000000000000000000000000000000000000004000000000000000000000000065
:0d3b20000000000000000000000000000098
:203b2d00000000000000000000000000000000000000000000000000000000000000000078
:203b4d00000000000000000000000000000000000000000000000000000000000000000058
:203b6d0000000000000000000000000000003e8f5410000000000000000000000000000007
:0d3b8d00000000000000000000000000002b
:203b9a0000000000000000000000000000000000000000000000000000000000000000000b
:203bba000000000000000000000000000000000000000000000000000000000000000000eb
:203bda0000000000000000000000000000001d0504000000000000000000000000000000a5
:0d3bfa0000000000000000000000000000be
:203c070000000000000000000000000000000000000000000000000000000000000000009d
:203c2700000000000000000000000000000000000000000000000028000000000000000055
:203c470000000000000000000000000100000000000000000000000000000000000000005c
:0d3c67000000000000000000000000000050
:203c7400000000000000000000000000000000000000000000000000000000000000000030
:203c940000000000000000000000000400000000000000000000000000000000000000000c
:203cb4000000000000000000000000010000000000000000000000000000000000000000ef
:0d3cd40000000000000000000000000000e3
:203ce1000000000000000000000000000000000000000000000000000000000000000000c3
:203d01000000000000000000000000000000000000000000000000000000000000000000a2
:203d21000000000000000000000000c001e0000000000000000000000000000000000000e1
:0d3d41000000000000000000000000000075
:203d4e00000000000000000000000000000000000000000000000000000000000000000055
:203d6e00000000000000000000000000000000000000000000000000000000000000000035
:203d8e000000000000000000000000000060000000000000000000000000000000000000b5
:0d3dae000000000000000000000000000008
:203dbb000000000000000000000000000000000000000000000000000000000000000000e8
:203ddb00000000000000000000000000000000000000000000000000000037280000000069
:203dfb0000000000000078000000000040000000000000018000000000000000000000006f
:0d3e1b00000000000000040007818f04007b
:203e280000000000000000000000000000000000000000000000000000000000000000007a
:203e480000000000000000000000000000000000000000000000000000003c3d40000000a1
:203e680000000000000508f00000000000000000000000000000000000000000000000003d
:0d3e8800000000000000000000000f050019
:203e95000000000000000000000000000000000010000000000000000000000000000000fd
:203eb500000000000000000000000000000000000000000000000000051a03b44080000057
:203ed500036aa5000000000000000020000000ef04008008005300d00200000000000000fb
:0d3ef50000580000000020016380cf040091
:203f0200000000000000000000000000000000002800000000000000000000000000000077
:203f22000000000000000000000000000000000000000000000000000090703880000000c7
:203f420002c0550000000000000000000000010f0400000700fa01fa4000000000000000f8
:0d3f6200000000000000000024010f04809a
:203f6f00000000000000000000000000000000000000000000000000000000000000000032
:203f8f0000000000000000000000000000000000000000000000000000009f01c080001e14
:203faf00000000000000000000000010000000000000100818002950000000000af04000ff
:0d3fcf0002000000000000000000000000e3
:203fdc000000000000000000000000000000000000000000000000000000000000000000c5
:203ffc000000000000000000000000000000000000000000000000000000300040400000f5
:20401c00000000000000000000000000000000000000000d00d016900000002c10f0400095
:0d403c000100000000000000000000000076
:20404900000000000000000000000000000000000000000000000000000000000000000057
:20406900000000000000000000000000000000000000000000000000000000000000000c2b
:2040890000000000000000000000000000000000000000018006bc10004a00280000000052
:0d40a900007000000000000000000000009a
:2040b6001800000000000000000000000000000000000000000000000000000000000000d2
:2040d6000000000000000000000000000000000000000000000000000000000000000000ca
:2040f600000000000000000000000000000000000000000000003c100020004000000000fe
:0d4116000008000000000000000000000094
:2041230000000000000000000000000000000000000000000000000000000000000000007c
:20414300000000000000000000000000000000000000000000000000000a00000000000052
:20416300000000000000000000000000000000000000000000002950500000000000000073
:0d418300000000000000000000418f04005b
:2041900000000000000000000000000000000000000000000000000000000000000000000f
:2041b0000000000001000000000000040000000000000000000000040b00000000001000cb
:2041d000000000000040000000000001000000000000040100301690401000000000000063
:0d41f000400000000000010003810f0400ea
:2041fd000000000000000000000000000000000000000000000000000000000000000000a2
:20421d00000000000000000000000000000000000000000000000000031800000000000066
:20423d006aeea5000100000000000000000000000000000000063c10000000001af04000c7
:0d425d0000800000000000000000000000d4
:20426a00000000000000000000000000000000000000000000000000000000000000000034
:20428a00000000000000000000000000000000000000000000000004098d0000000010006a
:2042aa0029f0550002c0000000000001000000000000040000003c100010000010f0400023
:0d42ca004050000000000100000000000056
:2042d7000000000000000000000000000000000000000000000000000000000000000000c7
:2042f7000000000000000000000000000000000000000000000000000580000000004000e2
:2043170078000000004058000000000100038000000010000102bc10000200000000000011
:0d433700000000000000000000008f048066
:20434400000000000000000000000000000000000000000000000000000000000000000059
:20436400000000000100000000000004000000000000000000000004090000000000100017
:20438400400000000040000000000001000400000000040008003c1000100000000000002c
:0d43a400400000000000010000010f0400b7
:2043b1000000000000000000000000000000000000000000000000000000000000000000ec
:2043d1000000000000000000000000000000000000000000000000000008ff29400000005c
:2043f1000000000000000007229400c00000000000030000000000000c0000000000000020
:0d44110040000bea9420c0000000000000f5
:20441e0000000000000000000000000000000000000000000000000000000000000000007e
:20443e0000000000000000000000000000000000000000000000000000009c2a8000001cfc
:20445e000000000000000001415400000000000000000000000000000000000000000000a8
:0d447e0000000102a8000000000000000086
:20448b00000000000000000000000000000000000000000000000000000000000000000011
:2044ab000000000000000000000000000000000000000000000000000000000000000000f1
:2044cb00000000000002780063c18000000641cf0400000001f78008000200040ef05000c5
:0d44eb0000040003c10000000001cf040028
:2044f8000000000000000000000000000000000000000000000000000000000000000000a4
:20451800000000000000000000000000000000000000000000000000000000000000000083
:20453800000000000000000003c100000002000f04000000097bd0000000003c00f04000ca
:0d45580004000003c100000000010f04106a
:20456500000000000000000000000000000000000000000000000000000000000000000036
:20458500000000000000000000000000000000000000000000000000058000000000002071
:2045a50000000000080058e02bc10060020000000000018000000000020000000ef050088f
:0d45c50000000003c100a001c3800a5400e3
:2045d2000000000000000000000000000000000000000000000000000000000000000000c9
:2045f200000000000000000000000000000000000000000000000000008f00000000001cfe
:20461200000000000000090003c1008000400000000000000a0000000000000000f04000c1
:0d46320000000003c1000000001c05a500f1
:20463f0000000000000000000000000000000000000000000000000000000000000000005b
:20465f0000000000000000000000000000000000000000000000000000000000000000003b
:20467f0000000000000051a0000000400003c0af0400000001000000040000001cf04030f3
:0d469f0000000003c100c00000018f0400f6
:2046ac000000000000000000000000000000000000000000000000000000000000000000ee
:2046cc000000000000000000000000000000000000000000000000000000000000000000ce
:2046ec000000000000000900000000c00007410f040000100f0000000400000010f0402007
:0d470c0000000003c100c00240010f0410b6
:20471900000000000000000000000000000000000000000000000000000000000000000080
:2047390000000000000000000000000000000000000000000000000001019fa940000014c2
:2047590003dcf50000000000000000000000008f04000008001b2944000000000cf040000d
:0d4779000000e06bc1000400e001af04008f
:20478600000000000000000000000000000000000000000000000000000000000000000013
:2047a600000000000000000000000000000000000000000000000000008b182a80000000a6
:2047c60000c0a00000000000000000000000010f0400000d00dc2a800000000010f041008b
:0d47e60000000043c1000a0020000f040085
:2047f3000000000000000000000000000000000000000000000000000000000000000000a6
:2048130000000000000000000000000000000000000000000000000000005fb140800200b3
:20483300000000000000000063c100000200008f04000300010000000000006c0cf04100ff
:0d485300000008029500000000018f0480a5
:20486000000000000000000000000000000000000000000000000000000000000000000038
:2048800000000000000000000000000000000000000000000000000000000831400000009f
:2048a000000000000000000043c100000040010f040000000f0000000000002810f0400029
:0d48c00000000d016900000000000f040061
:2048cd000000000000000000000000000000000000000000000000000000000000000000cb
:2048ed00000000000000000000000000000000000000000000000000058086b1408000240b
:20490d000378a000000000000000000a0060018f0400000000932940000036241cf04000cf
:0d492d0000000003c10000400201cf0400a3
:20493a0000000000000000000000000000000000000000000000000000000000000000005d
:20495a00000000000000000000000000000000000000000000000000000030328000001645
:20497a0001c0f50000000000000000000000000f04000000005c15480000142800f050001f
:0d499a0000000003c100000006410f0404ee
:2049a7000000000000000000000000000000000000000000000000000000000000000000f0
:2049c7000000000000000000000000000000000000000000000000000000000000000016ba
:2049e700000000000000000102950010000000000000000008000000000036001cf040007e
:0d4a070000000003c10000000680af0404a1
:204a1400000000000000000000000000000000000000000000000000000000000000000082
:204a3400000000000000000000000000000000000000000000000000000000000000020060
:204a540000000000000000000295000000000000000000000f0000000000140000f0500048
:0d4a740000000003c100000240000f04001c
:204a8100000000000000000000000000000000000000000000000000000000000000000015
:204aa1000000000000000000000000000000000000000000000000000300000000000000f2
:204ac10000000000300000002bc180c0140000cf0400000f000000000c0000001cf04030fb
:0d4ae100000400000000c000e001ef041020
:204aee000000000000000000000000000000000000000000000000000000000000000000a8
:204b0e00000000000000000000000000000000000000000000000000098000000000001ce2
:204b2e00000000000000000043c100000800000f0400000b000000000000000010f04000fd
:0d4b4e00000000000000000020000f040027
:204b5b0000000000000000000000000000000000000000000000000000000000000000003a
:204b7b0000000000000000000000000000000000000000000000000000000000000000001a
:204b9b0000000000000000002bc100000000200a540800001a02bc14000000000ef040005e
:0d4bbb002000180295000e01c280af04001a
:204bc8000002000000000000000000000000000000000000000000000000000000000000cb
:204be8000000000000000000000000000000000000000000000000000000000000000000ad
:204c0800000000000000000003c100000002b405a694000000003c100000000000f048004f
:0d4c28000200e70169000c1423410f040095
:204c350000000000000000000000000000000000000000000000000000000000000000005f
:204c55000000000000000000000000000000000000000000000000000000000000028000bd
:204c7500000000000a0500006bc100a80002800a560a80000002bc100a00000000a54029ea
:0d4c95000001c023c100a002e23ca4a00069
:204ca2000000000000000000000000000000000000000000000000000000000000000000f2
:204cc200000000000000000000000000000000000000000000000000000000000000400092
:204ce200000000000102000003c1000400002c05a404000000003c1800440003c05a6000f9
:0d4d020020000043c1000020641f89d00084
:204d0f00000000000000000000000000000000000000000000000000000000000000000084
:204d2f00000000000000000000000000000000000000000000000000000000000000000064
:204d4f00000ef04030000000000000c00002800a5701008d9f02bc180c4080001ef05032d4
:0d4d6f0088380033c100e003c29cabc020b7
:204d7c00000000000000000000000000000000000000000000000000000000000000000017
:204d9c000000000000000000000000000000000000000000000000000000000000000000f7
:204dbc000000f04810003000000000c001402405a69700050a043c100480400000f0403174
:0d4ddc0000080003c100400067d60640003b
:204de9000002000000000000000000000000000000000000000000000000000000000000a8
:204e0900000000000000000000000000000000000000000000000000100000000001a000d8
:204e2900000ef0400000780000000000014700af040c000d9a00295000001c0200a5500673
:0d4e490000000002950002140015d3e000e7
:204e560000000000000000000010000000000000000000000000000000000000000000002c
:204e76000000000000000000000000000000000000000000000000002000000000014000bb
:204e96000010f06000000800000000000140010f061400150090169801000203c05a400076
:0d4eb60000000b01690000000025e2600013
:204ec30040000000000000000000000000000000000000000000000000000000000000008f
:204ee3000000000000000000000000000000000000000000000000000000000000000000af
:204f0300000000000000001000000000000381af070000070006bc140000200000a5500052
:0d4f23000079e073c1000027c786cbc020d5
:204f3000000000000000000000000000000000000000000000000000000000000000000061
:204f5000000000000000000000000000000000000000000000000000000000000000000041
:204f700000000000000000e0000000000000000f0600000080003c1000001c38c05a4002b0
:0d4f900038090003c1000a19e616064000aa
:204f9d000000000000000000000000000000000000000000000000000000000000000000f4
:204fbd00000000000000000000000000000000000000000000000000000000000000014093
:204fdd00000000000000000000000000040001af061400500006bc100000a0041af04000d6
:0d4ffd000678007bc100001400009e4000fb
:20500a00000000000000000000000000000000000000000000000000000000000000000086
:20502a000000000000000000000000000000000000000000000000000000000000000080e6
:20504a000000000000300000000000000800000f0600000000003c1800031c3800f06000fe
:0d506a0021080043c30000e8022ded800086
:20507700000000000000000000000000000000000000000000000000000000000000000019
:205097000000000000000000000000000000000000000000000000000000000000000020d9
:2050b700380000000000000000000000000300af0588000000033c100000000600a5400226
:0d50d7009800e063c100000803c58e202092
:2050e40080000000000000000000000000000000000000000000000000000000000000002c
:20510400000000000000000000000000000000000000000000000000000000000000001477
:205124000000000000000000000000000404000f0608204000003c1200003c3cc05a4803bb
:0d51440009000043c10000e402c00e20007d
:2051510000000000000000000000000000000000000000000000000000000000000000003e
:2051710000000000000000000000000000000000000000000000000000000000000c000012
:205191000000000032000000000000c00000200a558301200006bc100c4100001cf040304e
:0d51b1000079e02bc100c202002d842020f7
:2051be000000000000000000000000000000000000000000000000000000000000000000d1
:2051de000000000000000000000000000000000000000000000000000000000000000000b1
:2051fe0000000000010000000000000000002405a610405000043c1040003c3c10f0404099
:0d521e0000010003c300000ac23c0fa00005
:20522b00000000000000000000000000000000000000000000000000000000000000000063
:20524b0000000000000000000000000005805a3c2000000000000000050000000000000003
:20526b00000000000000000073c18000400000af050013000003bc180000800000a560010b
:0d528b000001e7283e000a480001cf0400a2
:205298000002000000000000000000000000000000000000000000000000000000000000f4
:2052b800000000000000000000000000000b0003c080000000000000008b000000000400f9
:2052d800000000000000000003c100000400000f040008100e003c1000000001c05a40000e
:0d52f80000f000203c00040000010f060043
:20530500000000000000000000000000000000000000000000000000000000000000000088
:20532500000000000000001fa5f000800000123c200000000000000000000000000a0000bc
:2053450000000000280000002bc100a0000000af040280000003bc180a00000000a5600079
:0d5365000050e72c3e00a20000000a54009a
:2053720080000000000000000000000000000000000000000000000000000000000000009b
:20539200000000000000000105f0000000000803c00000000000000000000000000000003a
:2053b200000000000000000003c104006000000f0410000000003c1000000003c05a4000e7
:0d53d20000f100243c000000001c05a404b4
:2053df000000000000000000000000000000000000000000000000000000000000000000ae
:2053ff0000000000000000000000000005995214380000000000002800000000000c0040de
:20541f0000000000300019902bc100c0014280af040103800003bc140c401e000cf0400075
:0d543f001050a72c3e00c00000200a5400b1
:20544c008000000000000000001000000000000000000000000001000000000000000000af
:20546c0000000000000000000000000000085801500000000000001000000000000400005b
:20548c00000000001000099043c104c00142810f0405000000043c100c00020000f04040e5
:0d54ac000050a0e03c00c014000c05a4045a
:2054b9000003000000000000000000000000000000000000000000000000000000000000d0
:2054d9000000000000000600000000000199521438000000000000000000721400000000ef
:2054f90000000000000099902bc14000014280af040000100003bc18000000000af04000a7
:0d5519000018a7283e0000000000ef04006d
:20552600000000000000000000000000000000000000000000000000000000000000000065
:205546000000000000000000000000000d08180150000000000000000000143c0400400033
:20556600000000000000999043c100000002810f0600000000043c100100000000f040409f
:0d5586000050a0e43c00140000000f0400e1
:205593004000000000000000000000000000000000000000000000000000000000000000b8
:2055b30000000000200000000000000000007a1430000000000000000000f3c20000000045
:2055d30004000000000000106bc14000000001cf040000000007bc14000e9e001cf0400095
:0d55f300080007e83e0000a80001ef0400da
:20560000400200000000000000000000000000000000000000000000000000000000000048
:2056200000000000000002800000000000005001580000000000000000003b4000000000c4
:2056400038000000000000f003c100000000000f0404200000003c100000403800f04040f3
:0d56600000b000303c00101000000f0404ea
:20566d0000000000000000000000000000000000000000000000000000000000000000001d
:20568d0000000000000160400000000000005a143000000000000000080100000000001c99
:2056ad0000000000000010006bc14000c1c001af050028000007bc1040010e000cf04000a5
:0d56cd0000398d856a000001e241cf040024
:2056da000000000000000000000000000000000000000000000000000000000000000000b0
:2056fa000000000000000280000000000000100158000000000000000f0f00000000000087
:20571a00000000000000080003c100000000000f0400100000003c100000a60010f040400e
:0d573a0000b0d13294000001c3410f040003
:20574700000000000000000000000000000000000000000000000000000000000000000042
:2057670000000000000006eff080000000005a1430000000000000000f810000000000008f
:20578700001cf040000000006bc14004000681af050000099907bc1040001c7200a54100e2
:0d57a700009997ec3e0004a9e381cf0500b6
:2057b400800000000000000000000000000000000000000000000000000000000000000055
:2057d40000000000000002acf0000020000058015200000000000000070e00000000000037
:2057f4000000f0600000000043c100020004010f0400280999043c1000000224c05a40008d
:0d581400011080f03c00000064000f040053
:20582100000000000000000000000000000000000000000000000000000000000000000067
:20584100000000000002c69cc420230008005a14100000000000000000000000000c00004a
:2058610000000000300000006bc140c0e00001af041300099907bc100c0004001ef0404011
:0d588100008013ec3e00c00200000000009b
:20588e000000000000000000000000000000000000000000000000000000000000000000fa
:2058ae00000000000001603f002000000100180152000000000000000000000000000000ae
:2058ce00000000000000000043c100000000010f0400038999043c180000020000f04000f3
:0d58ee00001080f43c000022c0000000000b
:2058fb0000000000000000000000000000000000000000000000000000000000000000008d
:20591b00000000000000000000000000080000000000000000000000018a000000000000d9
:20593b0001e1008002800000029540000142bdd000100003817f40001000042008f0400101
:0d595b000001b7683e000ac06025b8d00406
:2059680000000000000000000000000000000000000000000000000000000000000000001f
:205988000000000000000000000000000700000000000000000000000000000000000000f8
:2059a800202c0000010000f301690008c0243f92000002808a9e10000000000010f0c000fe
:0d59c80004f0a0603c100400002df8e00089
:2059d5000000000000000000000000000000000000000000000000000000000000000000b2
:2059f500000000000000000000000080001800000000a000000000800d00f7801012000034
:205a150000c8f080280000007bc140a000002de0010680080a9a40400a0000000cf04000ef
:0d5a35000058e76c3e00b000e0000a54008d
:205a4200000000000000000000000000000000000000000000000000000000000000000044
:205a620000000000000000000000000000000000000040000000000001805402901000006d
:205a82000000f0010000000043c10000c3426fc08014000110b7c008000c000000f040007b
:0d5aa20000f100643c00108023dc05a4002e
:205aaf000000000000000000000000000000000000000000000000000000000000000000d7
:205acf0000000000000000000000000005003b6d5000000000000000000b17a810400000a0
:205aef000168f08010000008029540d00000168054031120007f50080c0000000ef04000c0
:0d5b0f0010d9952c3e00c008001df01200ba
:205b1c00000000000000000000000000000000000000000000000000000000000000000069
:205b3c0000000000000000000000000005005bee9000000000000000000e00281000000025
:205b5c000000f00010000003016900c00000030055852850009e00004400000000f0400095
:0d5b7c00005080a03c004214003d9000004d
:205b89000000000000000000000000000000000000000000000000000000000000000000fc
:205ba9000000000000000000000000000000000000000000000000000018000000000020a4
:205bc9006968f0800000000073c1400000005ecff000205801972800230000241ef040021b
:0d5be9008099b5283e00000000600a5410ad
:205bf60000000000000000000000000000000000000000000000000000000000000000008f
:205c1600000000000000000000000000000000000000000000000000050000000000001455
:205c36000020f0000000008043c1000000c37e0f50000001085800000000007810f0400100
:0d5c56000050a0bc3c00000003bc05a400f1
:205c6300000000000000000000000000000000000800000000000000000000000000000019
:205c83000000000000000000000000038180d70950000000000000000000d3991020000031
:205ca30001e805c0802800006bc1040400e065aad02000000a5e08000000800440a540005f
:0d5cc300083807816a00000000400a540004
:205cd0000000000000000000000000000000000000000000000000000000000000000000b4
:205cf0000000000000000000000000000080f789b00000000000000000001ec69020001c34
:205d100003c0f5400000100043c100020362040040000080190fc80200003c3c00a54000ed
:0d5d300000b8093294000214033c05a410d1
:205d3d00000000000000000000000000000000000000000000000000000000000000000046
:205d5d0000000000000000000000000000180000000000000000000001019ea800000020a6
:205d7d000040008000020000000000040003ade00010080008171008800000001cf0400095
:0d5d9d000000e5856a0000c0e0018f0400f1
:205daa000000000000000000000000000000000000000000000000000000000000000000d9
:205dca00000000000000000000000000071000000000000000000000008834000810002ca2
:205dea0000200000000410800000000000002fc020000187100810000000003c10f0c0002a
:0d5e0a00000009369400040243410f040417
:205e170000000000000000000000000000000000000000000000000000000000000000006b
:205e3700000000000000000000000010018000000000000000000000079b9628508000008a
:205e57006000008000000000000000000143c49a000010200c130154200020001af040007b
:0d5e7700009817ec3e000003e71f85f08047
:205e84000000000000000000000000000000000000000000000000000100000000000000fd
:205ea400000000000000000000000028008000000000000000000000000ab836d800000066
:205ec40040090000000000000000000000221df8000008001004015800000c0010f040007d
:0d5ee4000010f0b83c001203e00205f008c9
:205ef100000000000000000000000000000000000000000000000000000000000000000091
:205f1100000000000000000000000300001c973c1000000000000300000e5b81182c00201d
:205f310000400080300201c0000000c00006a6e00003080001f07fc02c0000701af0400030
:0d5f510000919f816a00c000077dd0000014
:205f5e00000000000000000000000000000000000000000000000000000000000000000023
:205f7e000000000000000000000000000010903e904000000000000009109eed502000043d
:205f9e002c200000000500000000000000027c90200010000c9af6c80000000010f0c00030
:0d5fbe00001881b2940000000384c8008028
:205fcb000000000000000000000000000000000000000000000000000000000000000000b6
:205feb000000000000000000000000000000f23d70000000000000000000000000000000f7
:20600b0001485540800000bda3f8000000061598540000080e128000000000000ef04001d1
:0d602b00387817283e000a000201cf04005b
:20603800000000000000000000000000000000000000000000000000000000000000000048
:2060580000000000000000000000000000001017f08000000000000007000000000000008a
:2060780000005544000001bf7bfc400002400dae5500000300bf84020000003800f0c00076
:0d60980004f8f0203c10048004010f040403
:2060a5000000000000000000000000000000000000000000000000000000000000000000db
:2060c50000000000200003adaf7000800000f21438000000000000800000b37dc402000098
:2060e5000000000028003810036c28a00202a4ff540a801000b62bc40a000e0000a54000bd
:0d610500305887283e00a0020041ef040042
:2061120000000000000000000000000000000000000000000000000000000000000000006d
:206132000000000000024424dff000000d003001500000000000000005007bffc200000045
:20615200000000000000088d039c000041c034ad150008a00ab43fc800000203c05a400036
:0d617200000100303c000012c3410f04008a
:20617f00000000000000000000000000000000000000000000000000000000000000000000
:20619f000000000000000017c34020000019d2143000040000000000000c5bb9508c002057
:2061bf000000000000001817f84008040200000a540b01001a73040084e4003a00a54000c9
:0d61df003cd9b7283e00d0000001af0404f9
:2061ec00000000000000000000000000000000000000000000000000000000000000000093
:20620c000000000000000002034000000008180150000000000000000000dc3e920c000400
:20622c0000000000000000994000000a0043dc05a4070010090804040ce00002c05a40002f
:0d624c000250a0e43c00c00000000f040060
:20625900000000000000000000000000000000000000000000000000000000000000000025
:206279000000000000016000000000000980d2143000000000000040000b000000000000ba
:2062990000000000000000180108080a00e0240664100b000073000000a01e001af04000ae
:0d62b9000099b7283e000001c001af04802d
:2062c6000000000000000000000000000000000000000000000000000000000000000000b8
:2062e60000000000000022c000000000070038015000000000000040000f000000000000d7
:20630600000000000000d0bd0204800081629c942710100000d650002040020000f0400052
:0d6326000050a0e03c000001c0000f04008a
:2063330000000000000000000000000000000000000000000000000000000000000000004a
:206353000000000000006680000000008000fa14300000000000000008010000000000007d
:20637300000000000000000839400400000005f506101023811280000002400018f04002a3
:0d639300003807ec3e00000003a00a540093
:2063a0000000000000000000000000000000000000000000000000000000000000000000dd
:2063c000000000000001400000000000000010015800000000000000070e000000002000de
:2063e0000000000000000003428000000140068a2404085b89bf88002000000000f040015b
:0d640000007000303c000000000405a60004
:20640d0000000000000000000000000000000000000000000000000000000000000000006f
:20642d000000000000006006fa1400000398da143000000000000000018e92fd9020e04034
:20644d00000000000000780bac04000014661dca04001040187300081000000008f040006c
:0d646d000080ed856a00000002018f040030
:20647a00000000000000000000000000000000000000000000000000000000000000000002
:20649a00000000000000000cce2400000080300158000000000000000010377eb000e08006
:2064ba0000000000000098ffa000000079c0360f54000b8000d642000000042010f04000b2
:0d64da0000b001369400000404010f04100e
:2064e700000000000000000000000000000000000000000000000000000000000000000095
:20650700000000000000e00ec05100000980da1430000400000000000001bbd680000000b8
:20652700700000000030781bb81d4800c0668fc0500800019f0000000000000200a54000b0
:0d654700209997e83e00028003808f040435
:20655400000000000000000000000000000000000000000000000000000000000000000027
:206574000000000000000000005000000100100158000040000000000908d20680000000a4
:20659400000000000000f889007c010000040100500000001900000000a00420c05a40005d
:0d65b400001080f03c00041404010f0400ee
:2065c1000000000000000000000000000000000000000000000000000000000000000000ba
:2065e10000000000c00000000000030008009a14100000000000030008010000000c0000f9
:2066010000000000028001e0000000ca0200200a54030000001281546c0004001ef0400024
:0d662100008197ec3e00c00402000a5410f6
:20662e0000000000000000000000000000000000000000000000000000000000000000004c
:20664e000000000000000000000000000100b0029800000000000000070e000000000000cc
:20666e00000000000100f1900000000480400c05a6000000000401500088000000f0400002
:0d668e00001080e43c000008042c05a4006e
:20669b000000000000000000000000000000000000000000000000000000000000000000df
:2066bb00000000000001400000000000000a5297c0000000000000000000000000000000cb
:2066db00014b704000305195a15400000202a1980000138900db8000000a00041ef0400107
:0d66fb0002380023c0000006e000af0600da
:20670800000000000000000000000000000000000000000000000000000000000000000071
:20672800000000000000028000000000000a0817c0000000000000000000000000000000e6
:2067480003693148000000f04154000001c404d40200080f80d828004000002810f06000c9
:0d67680084000003c050001ee2410f040039
:20677500000000000000000000000000000000000000000000000000000000000000000004
:2067950000000000201606000000000005000000000000000000028000000000000200001f
:2067b500040000002800780f7a0008000342af80000000800012a8040a0000701af0400019
:0d67d500007000000000a0200000cf0408ac
:2067e200000000000000000000000000000000000000000000000000000000000000000097
:2068020000000000000840000000000000800000000000000000002010000000000000007e
:20682200340000000000000740000000016004a082001000000028000084000010f0600038
:0d684200000000000000000000010f040035
:20684f00000000000000000000000000000000000000000000000000000000000000000029
:20686f00000000000001e0000000000005005b014000000000000100001e03bc1000002079
:20688f003c000000100001893000080002003faa000810090efe81000440242000a55000c5
:0d68af000590036880004488e7040a540047
:2068bc000000000000000000000000000000000000000000000000000000000000000000bc
:2068dc00000000000000200000000000050a080142000000000003000010003c00000004cf
:2068fc0034000000100001034200040201c03c0002802007907ac00004a00c03405a4000ef
:0d691c00021003a80004c81006400a5480b1
:2069290000000000000000000000000000000000000000000000000000000000000000004e
:206949000000000000020000000000000801000000000000000000018000000000000000a2
:2069690004000000028480032815000000062f800080000b8a172800400000200ef050000d
:0d698900009000000000000800040a540007
:206996000000000000000000000000000000000000000000000000000000000000000000e1
:2069b600000000000002c00000000000050a000000000000000000000000000000000000f0
:2069d600200000000002100040150008034404a1000000058b5629000000000000f04000e7
:0d69f600181000000000000000000a54808e
:206a0300000000000000000000000000000000000000000000000000000000000000000073
:206a23000000000000000077c0d4000001810683c0000000000000000000000000000a0073
:206a430000000000000000a06141c00000603e0db01028000afb4000002000000af04800f7
:0d6a63000011c130280004a800000a5500f1
:206a7000000000000000000000000000000000000000000000000000000000000000000006
:206a90000000000000000285e4f4000000890003c0400000000000000000000000000000fb
:206ab000000000000000100d02810200002036eff200300010d7d0040000840000f040004e
:0d6ad0000010000028000a10025405a40068
:206add00000000000000000000000000000000000000000000000000000000000000000099
:206afd000000000000014680000000200000523fc0000000000000000000000000002140e0
:206b1d0000000000000280077c800000040761c0422000100edf28001001400200a54000e8
:0d6b3d00000000000000000000408f040078
:206b4a0000000000000000000000000000000000000000000000000000000000000000002b
:206b6a000000000000000000000000000f00567f8010000000000000000000000000404017
:206b8a0000000000000450096800010a01c694008000002d0eb8000800060002405a4080e3
:0d6baa00000000000000000003010f0600c5
:206bb7000000000000000000000000000000000000000000000000000000000000000000be
:206bd7000000000000004005fa1400000000738100800000000000000800000000000200cd
:206bf700017f6440000010000000000008e00c850200100000dbc000000a1c0000a5500009
:0d6c1700801001adf004140000200a5500ab
:206c2400000000000000000000000000000000000000000000000000000000000000000050
:206c44000000000000000015e62400000f0f080100000000000000000700000000000000e3
:206c6400037925480001080000000000100005000000080300da8200100c0201405a4003a6
:0d6c84008008072af4010214101c05a4006a
:206c91000000000000000000000000000000000000000000000000000000000000000000e3
:206cb10000000000c001406c9a5408000000bb3cc08000000000000000000000000c00c05d
:206cd1000400000032000087782800000002a0124010000d0f5790048c0000040cf060004f
:0d6cf100050000000000ca344001cf04007f
:206cfe00000000000000000000000000000000000000000000000000000000000000000076
