:02000000ff00ff
:080002004c6174746963650030
:17000a00694345637562653220323031372e30382e32373934300069
:16002100506172743a2069434534304858344b2d545131343400f9
:1b003700446174653a204d617920313320323031382030373a32343a35360074
:0200520000ffad
:040054007eaa997e69
:02005800510055
:02005a0001059e
:03005c00920020ef
:03005f00620367d2
:0300620072011018
:0300650082000016
:02006800110085
:02006a00010192
:20006c000000000000000000000000000000000000000000000000800000000000000000f4
:20008c0000000000080000000000000000000000000000000000000000000000000000004c
:2000ac00000000000000000000000000000000000000000200000000000000000000000032
:0d00cc000000000000000000000000000027
:2000d900000000000000000000000000000000000000000000000000000000000000000007
:2000f9000000000000000000000000000000000000000000000000000000000000000000e7
:200119000000000000000000000000000000000000000001c0000000000000000000000005
:0d01390000000000000000000000000000b9
:20014600000000000000000000000000000000000000000000000040000000000000000059
:20016600000000000400000000000000000000000000000000000000000000000000000075
:20018600000000000000000000000000000000000000000000000000000000000000000158
:0d01a6000000000000000400000000000048
:2001b300000000000000000000000000000000000000000000000000070000000000000025
:2001d30000000000000000000000000000000000000000000000000000000000000000000c
:2001f3000000000000000000000000000000000000000000000000000000000000000000ec
:0d02130000000000000000000000000000de
:2002200000000000000000000000000000000000000000000000008000000100000000003d
:20024000000000000800000000000000000000000000000000000000000000000000000096
:2002600000000000000000000000000000000000000000000000000000000000000000007e
:0d0280000000000000000000000000000071
:20028d0000000000000000000000000000000000000000000000000000000300000000004e
:2002ad00000000000000000010000000000000000000000000000000000000000000000021
:2002cd00000000000000000000000000000000000000000000000000000000000000000011
:0d02ed0000001000000000000000000000f4
:2002fa000000000000000000000000000000000000000000000000000000000000000000e4
:20031a000000000000000000000000000000000000000000000000000000000000000000c3
:20033a000000000000000000000000000000000000000000000000000000000000000001a2
:0d035a000000000000000400000000000092
:20036700000000000000000000000000000000000000000000000000000000000000000076
:20038700000000000000000000000000000000000000000000000000000000000000000056
:2003a700000000000000000000000000000000000000000000000000000000000000000234
:0d03c7000000000000000000000000000029
:2003d400000000000000000000000000000000000000000000000000030200000000000004
:2003f4000000000000000000000000000000000000000000000000000000000000000000e9
:200414000000000000000000000000000000000000000000000000000000000000000000c8
:0d04340000000400000000000000000000b7
:2004410000000000000000000000000000000000000000000000000000000000000000009b
:2004610000000000000000000000000000000000000000000000000000000000000000007b
:2004810000000000000000000000000000000000000000000000000000000001000000005a
:0d04a100000000000000000000000000004e
:2004ae0000000000000000000000000000000000000000000000000000000100000000002d
:2004ce0000000000000000000000000000000000000000000000000000000000000000000e
:2004ee000000000000000000000000000000000000000000000030000000000000000000be
:0d050e0000000400000000000000000000dc
:20051b0000000000000000000000000000000000000000000000008000000300000000003d
:20053b000000000000000000000000000000000000000000000000000000000000000000a0
:20055b0000000000000000000000000000000000000000000000300000000002000000004e
:0d057b00000000000000000000000400006f
:20058800000000000000000000000000000000000000000000000000000000000000000053
:2005a800000000000000000000000000000000000000000000000000000000000000000033
:2005c800000000000000000000000000000000000000000000000000000000000000000013
:0d05e80000000800000000000010000000ee
:2005f5000000000000000000000000000000000000000000000000400000000000000000a6
:200615000000000000000000000000000000000000000000000000000000000000000000c5
:200635000000000000000000000000000000000000000000000000000000000000000000a5
:0d0655000000040000000000000000000094
:20066200000000000000000000000000000000000000000000000000000100000000000077
:20068200000000000000081000000000000000000000000000000000000000000000000040
:2006a200000000000000000000000000000000000000000000000000000000000000000038
:0d06c200000004000000000008000000001f
:2006cf0000000000000000000000000000000000000000000000008000000000000000008b
:2006ef000000000000003800000000000000000000000000000000000000000000000000b3
:20070f000000000000000000000000000000000000000000000000000000000000000000ca
:0d072f000000040000000000781000000031
:20073c0000000000000000000000000000000000000000000000000000000000000000009d
:20075c0000000000000000000000000000000000000000000000000000000000000000007d
:20077c0000000000000000000000000000000000000000000000000000000000000000005d
:0d079c000000000000000000000000000050
:2007a900000000000000000000000000000000000000000000000000000000000000000030
:2007c900000000000000000000000000000000000000000000000000000000000000000010
:2007e9000000000000000000000000000000000000000000000000000000000000000000f0
:0d08090000000000000000000000000000e2
:200816000000000000000000000000000000000000000000000000000000000000000000c2
:200836000000000000000000000000000000000000000000000000000000000000000000a2
:20085600000000000000000000000000000000000000000000000000000000000000000082
:0d0876000000000000000000000000000075
:20088300000000000000000000000000000000000000000000000000000000000000000055
:2008a300000000000000000000000000000000000000000000000000000000000000000035
:2008c300000000000000000000000000000000000000000000000000000000000000000015
:0d08e3000000000000000000000000000008
:2008f0000000000000000000000000000000000000000000000000000000000000000000e8
:200910000000000000000000000000000000000000000000000000000000000000000000c7
:200930000000000000000000000000000000000000000000000000000000000000000000a7
:0d095000000000000000000000000000009a
:20095d0000000000000000000000000000000000000000000000000000000000000000007a
:20097d0000000000000000000000000000000000000000000000000000000000000000005a
:20099d0000000000000000000000000000000000000000000000000000000000000000003a
:0d09bd00000000000000000000000000002d
:2009ca0000000000000000000000000000000000000000000000000000000000000000000d
:2009ea000000000000000000000000000000000000000000000000000000000000000000ed
:200a0a0000000000000000000000000000000000000040000000000001000000000000008b
:0d0a2a0000000000000000000000000000bf
:200a370000000000000000000000000000000000000000000000000000000000000000009f
:200a570000000000000000000000000000000000000000000000000000000000000000007f
:200a770000000000000000000000000000000000000040000000000001000000000000001e
:0d0a97000000000000000000000000000052
:200aa400000000000000000000000000000000000000000000000000000000000000000032
:200ac400000000000000000000000000000000000000000000000000000000000000000012
:200ae4000000000000000000000000000000000000000000000000000000000000000000f2
:0d0b040000000000000000000000000000e4
:200b11000000000000000000000000000000000000000000000000000000000000000000c4
:200b31000000000000000000000000000000000000000000000000000000000000000000a4
:200b5100000000000000000000000000000000000000000000000000000000000000000084
:0d0b71000000000000000000000000000077
:200b7e00000000000000000000000000000000000000000000000000000000000000000057
:200b9e00000000000000000000000000000000000000000000000000000000000000000037
:200bbe00000000000000000000000000000000000000000000000000000000000000000017
:0d0bde00000000000000000000000000000a
:200beb000000000000000000000000000000000000000000000000000000000000000000ea
:200c0b000000000000000000000000000000000000000000000000000000000000000000c9
:200c2b000000000000000000000000000000000000000000000000000000000000000000a9
:0d0c4b00000000000000000000000000009c
:200c580000000000000000000000000000000000000000000000000000000000000000007c
:200c7800000000000a00000000000000000000000000000000000000000000000000000052
:200c980000000000000000000000000000000000000000000000000000000000000000003c
:0d0cb800000000000000000000000000002f
:200cc50000000000000000000000000000000000000000000000000000000000000000000f
:200ce5000000000000000000000000000000000000000000000000000000000000000000ef
:2011740000000000000000000000000000000000000000000000000140000000000000001a
:2011940000000000000000000000000000000000000000000000000000000000000000003b
:2011b40000000000000000000000000000000000000000000000000000000000000000001b
:0d11d400000000000000000000000000000e
:2011e1000000000000000000000000000000000000000000000000000000000000000000ee
:2016d0000000000000000000000000000000000000000000000000000000000000000004f6
:0d16f00000000000000000000000000000ed
:2016fd000000000000000000000000000000000000000000000000000000000000000000cd
:20171d000000000000000000000000000000000000000000000000000000000000000000ac
:20173d0000000000000000000000000000000000000000000000000000000000000000008c
:201d6000000000000000000000100000000000000000000000000000000000000000000053
:201d8000000000000000000000000000000000000000000000000000000000000000000043
:201da0000000000000000000000000000000000000002800000000000000000000000000fb
:0d1dc0000000000000000000000000000016
:201dcd000000000000000000000000000000000000000000000000000000000000000000f6
:201ded000000000000000000000000000000000000000000000000000000000000000000d6
:201e0d000000000000000000000000000000000000001000000000000000000000000000a5
:0d1e2d0000000000000000a0000000000008
:201e3a00000000000000000000000000000000000000000000000000000000000000000088
:201e5a00000000000000000000000000000000000000000000000000000000000000000068
:201e7a00000000000000000000000000000000000000000000000000000000000000000048
:0d1e9a00000000000000000000000000003b
:201ea70000000000000000000000000000000000000000000000000000000000000000001b
:201ec7000000000000000000000000000000000000000000000000000000000000000000fb
:201ee7000000000000000000000000000000000000000000000000000000000000000000db
:0d1f070000000000000000000000000000cd
:201f14000000000000000000000000000000000000000000000000000000000000000000ad
:201f340000000000000000000000000000000000000000000000000000000000000200008b
:201f540000000000000000000000000000000000000000000000000000000000000000006d
:0d1f74000000000000000000000000000060
:201f8100000000000000000000000000000000000000000000000000000000000000000040
:201fa100000000000000000000000000000000000000000000000000000000000000000020
:2022e9000002000000000000000000000000000000000000000000000000000000000000d3
:20230900000000000060000000000000000000000000000000000000000000000000000054
:20232900000000000000000000000000000000000000000000000000000000000000000094
:0d2349000000000000000000000000000087
:20235600000000000000000000000000000000000000000000000000000000000000000067
:20237600000000000000000000000000000000000000000000000000000000000000000047
:20239600000000000000000000000000000000000000000000000000000000000000000027
:0d23b600000000000000000000000000001a
:2023c3000000000000000000000000000000000000000000000000000000000000000000fa
:2023e3000000000000000000000000000000000000000000000000000000000000000000da
:202403000000000000000000000000000000000000000000000000000000000000000000b9
:0d24230000000000000000000000000000ac
:2024300000000000000000000000000000000000000000000000000000000000000000008c
:2024500000000000000000000000000000000000000000000000000000000000000000006c
:2024700000000000000000000000000000000000000000000000000000000000000000004c
:0d249000000000000000000000000000003f
:20249d0000000000000000000000000000000000000000000000000000000000000000001f
:2024bd000000000010000000000000000000000000000000000000000000000000000000ef
:2024dd000000000000000000000000000000000000000000000000000000000000000000df
:0d24fd0000000000000000000000000000d2
:20250a000002000000000000000000000000000000000000000000000000000000000000af
:20252a00000000000000000000000000000000000000000000000000000000000000000091
:20254a00000000000000000000000000000000000000000000000000000000000000000071
:0d256a000000000000000000000000000064
:20257700000000000000000000000000000000000000000000000000000000000000000044
:20259700000000000000000000000000000000000000000000000000000000000000000024
:2025b700000000000000000000000000000000000000000000000000000000000000000004
:0d25d70000000000000000000000000000f7
:2025e4000000000000000000000000000000000000000000000000000000000000000000d7
:202604000000000000000000000000000000000000000000000000000000000000000000b6
:20262400000000000000000000000000000000000000000000000000020000000000000094
:0d2644000000000000000000000000000089
:202651008000000000000000000000000000000000000000000000000000000000000000e9
:20267100000000000000000000000000000000000000000000000000000000000000000049
:20269100000000000000000000000000000000000000000000000000000000000000000029
:0d26b100000000000000000000000000001c
:2026be000000000000000000000000000000000000000000000000000000000000000000fc
:2026de000000000000000000000000000000000000000000000000000000000000000000dc
:2026fe000000000000000000000000000000000000000000000000000000000000000002ba
:0d271e00800000000000000000000000002e
:20272b0000000000000000000000000000000000000000000000000000000000000000008e
:20274b0000000000000000000000000000000000000000000000000000000000000000006e
:20276b0000000000000000000000000000000000000000000000000000000000000000014d
:0d278b000000000000000000000000000041
:20279800000000000000000000000000000000000000000000000000000000000000000021
:2027b800000000000000000000000000000000000000000000000000000000000000000001
:2027d8000000000000000000000000000000000000000000000000000000000000000000e1
:0d27f80000000000000000000000000000d4
:20280500800000000000000000000000000000000000000000000000000000000000000033
:20282500000000000000000000000000000000000000000000000000000000000000000093
:20284500000000000000000000000000000000000000000000000000000000000000000073
:0d2865000000000000000000000000000066
:20287200000000000000000000000000000000000000000000000000000000000000000046
:20289200000000000000000000000000000000000000000000000000000000000000000026
:2028b200000000000000000000000000000000000000000000000000000000000000000006
:0d28d20000000000000000000000000000f9
:2028df000000000000000000000000000000000000000000000000000000000000000000d9
:2028ff000000000000000000000000000000000000000000000000000000000000000000b9
:20291f00000000000000000000000000000000000000000000000000000000000000000098
:0d293f00000000000000000000000000008b
:20294c004000000000000000000000000000000000000000000000800000000000000000ab
:20296c0000000000000000000000000000000000000000000000000000000000000000004b
:20298c0000000000000000000000000000000000000000000000000000000000000000002b
:0d29ac00000000000000000000000000001e
:2029b9000002000000000000000000000000000000000000000000000000000000000000fc
:2029d9000000000000000000000000000000000000000000000000000000000000000000de
:2029f9000000000000000000000000000000000000000000000000000000000000000000be
:0d2a190000000000000000000000000000b0
:202a2600000000000000000000000000000000000000000000000000000000000000000090
:202a4600000000000000000000000000000000000000000000000000000000000000000070
:202a6600000000000000000000000000000000000000000000000000000000000000000050
:0d2a86000000000000000000000000000043
:202a93008000000000000000000000000000000000000000000000000000000000000000a3
:202ab300000000000000000000000000000000000000000000000000000000000000000003
:202ad3000000000000000000000000000000000000000000000000000000000000000000e3
:0d2af30000000000000000000000000000d6
:202b0000440000000000000000000000000000000000000000000000000000000000000071
:202b2000000000000000000000000000000000000000000000000000000000000000000095
:202b4000000000000000000000000000000000000000000000000000000000000000000075
:0d2b60000000000000000000000000000068
:202b6d000c000000000000000000000000000000000000000000000000000000000000003c
:202b8d00000000001000000000000000000000000000000000000000000000000000000018
:202bad00000000000000000000000000000000000000000000000000000000000000000008
:0d2bcd0000000000000000000000000000fb
:202bda000003000000000000000000000000000000000000000000000000000000000000d8
:202bfa000000000000000000000000000000000000000000000000000000000000000000bb
:202c1a00000000000000000000000000000000000000000000000000010000000000000099
:0d2c3a00000000000000000000000000008d
:202c470000000000000000000000000000000000000000000000000000000000000000006d
:202c670000000000000000000000000000000000000000000000000000000000000000004d
:202c870000000000000000000000000000000000000000000000000001000000000000002c
:0d2ca7000000000000000000000000000020
:202cb400000000000000000000000000000000000000000000000000000000000000000000
:202cd4000000000000000000000000000000000000000000000000000000000000000000e0
:202cf4000000000000000000000000000000000000000000000000000200000000000000be
:0d2d140000000000000000000000000000b2
:202d2100800000000000000000000000000000000000000000000000000000000000000012
:202d4100000000000000000000000000000000000000000000000000000000000000000072
:202d6100000000000000000000000000000000000000000000000000000000000000000052
:0d2d81000000000000000000000000000045
:202d8e000068000000000000000000000000000000000000000000000000000000000000bd
:202dae00000000000000000000000000000000000000000000000000000000000000000005
:202dce000000000000000000000000000000000000000000000000000000000000000000e5
:0d2dee0000000000000000000000000000d8
:202dfb000000000000000000000000000000000000000000000000000000000000000000b8
:202e1b00000000000000000000000000000000000000000000000000000000000000000097
:202e3b00000000000000000000000000000000000000000000000000000000000000000077
:0d2e5b00000000000000000000000000006a
:202e680000000000000000000000000000000000000000000000000000000000000000004a
:202e880000000000000000000000000000000000000000000000000000000000000000002a
:202ea80000000000000000000000000000000000000000000000000000000000000000000a
:0d2ec80000000000000000000000000000fd
:202ed50080000000000000000000000000000000000000000000000000000000000000005d
:202ef5000000000000000000000000000000000000000000000000000000000000000000bd
:202f150000000000000000000000000000000000000000000000000000000000000000009c
:0d2f3500000000000000000000000000008f
:202f420000000000000000000000000000000000000000000000000000000000000000006f
:202f620000000000000000000000000000000000000000000000000000000000000000004f
:202f820000000000000000000000000000000000000000000000000000000000000000002f
:0d2fa2000000000000000000000000000022
:202faf00000000000000000000000000000000000000000000000000000000000000000002
:202fcf000000000000000000000000000000000000000000000000000000000000000000e2
:202fef000000000000000000000000000000000000000000000000000000000000000000c2
:0d300f0000000000000000000000000000b4
:20301c00000000000000000000000000000000000000000000000000000000000000000094
:20303c00000000000000000000000000000000000000000000000000000000000000000074
:20305c00000000000000000000000000000000000000000000000000000000000000000054
:0d307c000000000000000000003cca02003f
:20308900000000000000000000000000000000000000000000000000000000000000000027
:2030a900000000000000000000000000000000000000000000000000000000000000000007
:2030c9000000000000000000000000000000000000000000000000000000000000000000e7
:0d30e900000000000000000000270fa110f3
:2030f6000000000000000000000000000000000000000000000000000000000000000000ba
:20311600000000000000000000000000000000000000000000000000000000000000000099
:20313600000000000000000000000000000000000000000000000000000000000000000079
:0d315600000000000000000000000000006c
:2031630000000000000000000000000000000000000000000000000000000000000000004c
:2031830000000000000000000000000000000000000000000000000000000000000000002c
:2031a300000000000000000000000000000000000000000000000000000000000000000408
:0d31c300000000000000000003c00000003c
:2031d0000000000000000000000000000000000000000000000000000000000000000000df
:2031f0000000000000000000000000000000000000000000000000000000000000000000bf
:20321000000000000400000000000000000000000000000000000000000000000000000496
:0d3230000000000000001000000000000081
:20323d00000000000000000000000000000000000000000000000000000000000000000071
:20325d00000000000000000000000000000000000000000000000000000000000000000051
:20327d0000000000000000000000000000000000000000000000000000000000000000042d
:0d329d000000000000001000000000000014
:2032aa000000000000000000000000000000000040000000000000000000000000000000c4
:2032ca000000000000000000000000000000000000000000000000000000000000000000e4
:2032ea000000000000000000000000000000000000000000000000000000000000000004c0
:0d330a0000000000000008000000000000ae
:20331700000000000000000000000000000000004000000000000000000000000000000056
:20333700000000000000000000000000000000000000000000000000000000000000000076
:20335700000000000000000000000000000000000000000000000000000000000000000056
:0d3377000000000000000400000000000045
:20338400000000000000000000000000000000000000000000000000000000000000000029
:2033a400000000000000000000000000000000000000000000000000000000000000000009
:2033c4000000000000000000000000000000000000000000000000000000000000000000e9
:0d33e4000000000000000000078000000055
:2033f1000000000000000000000000000000000000000000000000000000000000000000bc
:2034110000000000000000000000000000000000000000000000000000000000000000009b
:2034310000000000000000000000000000000000000000000000000000000000000000007b
:0d345100000000000000000040000000002e
:20345e0000000000000000000000000000000000000000000000000000000000000000004e
:20347e0000000000000000000000000000000000000000000000000000000000000000002e
:20349e000000000000000000000000000000000000000000000000000000400000000000ce
:0d34be000000000000000000000000000001
:2034cb000000000000000000000000000000000000000000000000000000000000000000e1
:2034eb000000000000000000000000000000000000000000000000000000000000000000c1
:20350b00000000000000000000000000000000000000000000000000000080000000000020
:0d352b000000000000000000000000000093
:20353800000000000000000000000000000000000000000000000000000000000000000073
:20355800000000000000000000000000000000000000000000000000000000000000000053
:20357800000000000000000000000000000000000000000000000000000000000000000033
:0d3598000000000000000000001dea00001f
:2035a500000000000000000000000000000000000000000000000000000000000000000006
:2035c5000000000000000000000000000000000000000000000000000000000000000000e6
:2035e5000000000000000000000000000000000000000000000000000000000000000000c6
:0d3605000000000000000000020e0fa08079
:20361200000000000000000000000000000000000000000000000000000000000000000098
:20363200000000000000000000000000000000000000000000000000000000000000000078
:20365200000000000000000000000000000000000000000000000000000000000000000058
:0d3672000500000000000000000000000046
:20367f0000000000000000000000000000000000000000000000000000000000000000002b
:20369f0000000000000000000000000000000000000000000000000000000000000000000b
:2036bf000000000000000000000000000000000000000000000000000000000000000000eb
:0d36df00020000000000000240000000009a
:2036ec000000000000000000000000000000000000000000000001000000000000000000bd
:20370c0000000000000000000000000000000000000000000000000000000000000000009d
:20372c00000000000000000000000000000000000000000000000000080014014a50c00006
:0d374c000000000000000000000000000070
:2037590000000000000000000000000000000000000000000000010000000000000000004f
:20377900000000000000000000000000000b00000000000000000000000000000000000025
:203799000000000000000000000000000000000000000000000000000000022d5905400043
:0d37b9000000000000000000000000000003
:2037c6000000000000000000000000000000000000000000000000000000000000000000e3
:2037e600000000002000078000000000000a00000000000000000000000000000000000012
:2038060000000000000000000000000000000000000000000000000006000001c850c008bb
:0d38260000000003c1802000000000000031
:20383300000000000000000000000000000000000000000000000000000000000000000075
:20385300000000000000040000000000001000000000000000000000000000000000000041
:203873000000000000000000000000000000000000000000000000000800000040054000a8
:0d38930000000003c1000000000000000064
:2038a000000000000000000000000000000000000000000000000000000000000000000008
:2038c000000000000000000000000000000a000000000000000000000000000000000000de
:2038e00000000000000000000000000000000000000000000000000000003461c850c0302b
:0d390000000000000000c0000000000000fa
:20390d0000000000000000000000000000000000000000000000000000000000000000009a
:20392d0000000000000000000000000000100000000000000000000000000000000000006a
:20394d000000000000000000000000000000000000000000000000000000062d6005402062
:0d396d0000000000000080000000000000cd
:20397a0000000000000000000000000000000000000000000000020000000000000000002b
:20399a0000000000000000000000000000000000000000000000000000000000000000000d
:2039ba000000000000000000000000000000000000000000000000000000000148f0c000f4
:0d39da0000000000000000000000000000e0
:2039e7000000000000000000000000000000000000000000000000000000000000000000c0
:203a0700000000000000000000000000000b00000000000000000000000000000000000094
:203a270000000000000000000000000000000000000000000000000000000000200f400010
:0d3a47000000000000000000000000000072
:203a5400000000000000000000000000000000000000000000000000000000000000000052
:203a740000000000000000000000000000001e820000000000000000000000000000000092
:203a940000000000000000000000000000000000000000000000000000000001e8f0c00079
:0d3ab400000000000000000000000f0410e2
:203ac1000000000000000000000000000000000000000000000000000000000000000000e5
:203ae10000000000010000000000000000009ec00040000000000000000000000000000026
:203b010000000000000000000000000000000000000000000000000000000000000f400055
:0d3b2100400000000000010000000f040043
:203b2e00000000000000000000000000000000000000000000000000000000000000000077
:203b4e00000000000000000000000000000000000000000000000040000000000000000017
:203b6e0000000000000000000000000000000000000000000000000000000001e8554000b9
:0d3b8e00000000000000000000000000002a
:203b9b00000000000000000000000000000000000800000000000000000000000000000002
:203bbb000000000000000000000000000000000000000000000000400000000000000000aa
:203bdb00000000000000000000000000000000000000000000000000000c00000055400029
:0d3bfb0000000000000000000000000000bd
:203c080000000000000000000000000000000000000000000000000000000000000000009c
:203c280000000000000000018f0500000000000000000000000000000000000000000000e7
:203c4800000000000000000000000000000000000000000000000000001006040000000042
:0d3c6800120000000000000000000000003d
:203c7500180000000000000000000000000000000000000000000000000000000000000017
:203c950000000000010000010f0c00000000000000000000000000000000000000000000f2
:203cb5000000000000000000000000000000000000000000000000000010002000000000bf
:0d3cd50040000000000001000000000000a1
:203ce2000000000000000000000000000000000000000000000000000000000000000000c2
:203d020000000000c0000000000000000000000000000000000000030000000000000000de
:203d22000000000000000000000000000000000000000000000000000c002600000000301f
:0d3d4200400000000000c100000000000073
:203d4f00000000000000000000000000000000000000000000000000000000000000000054
:203d6f00000000000000000000000000000000000000000000000000000000000000000034
:203d8f00000000000000000000000000000000000000000000000000000004000000000010
:0d3daf000000000000000000000000000007
:203dbc000000000000000000000000000000000000000000000000000000000000000000e7
:203ddc00000000000000002ff080000000001a3c20000000000000000000000000000000b2
:203dfc00007ea50000000000000000000000000000000000001840200000142a4800002066
:0d3e1c00120000000000000000000a550820
:203e2900000000000000000000000000000000000000000000000000000000000000000079
:203e4900000000000000002cf000000000000803c0800000000000000000000000000000f2
:203e69002e60aa000000000000000000000000000000000d0003400000001428580100001c
:0d3e8900010000000000000002f405a58407
:203e960000000000000000000000000000000000000000000000000000000000000000000c
:203eb600000000002000000000000080001a523c2000000000000000000000000000000084
:203ed600280000000000000000000020000001cf0601800500123c20000154020840021801
:0d3ef600000000000000a00000000a5508b8
:203f030000000000000000000000000000000000000000000000000000000000000000009e
:203f230000000000000002c00000000000000803c0000000000000002000000000000000d1
:203f43004000000000000000000000000000000f0402000080003c000000940050800020c9
:0d3f63000000000000000000000c05a5801b
:203f7000000000000000000000000000000000000000000000000000000000000000000031
:203f9000000000000000000000000000001bd21430000000000000000000000000000000e0
:203fb000035ea50000000000000000000000000000000000185a3c2000000068fa080204ad
:0d3fd00000580000000040000600ef070c44
:203fdd000000000000000000000000000000000000000000000000000000000000000000c4
:203ffd000000000000080000000000000008f8015000000000000000000000000000003417
:20401d0002c0aa000000000000000000000000000000000000003c0000000000f02c0000bf
:0d403d00000000000000400004010f04041a
:20404a00000000000000000000000000000000000000000000000000000000000000000056
:20406a000000000000000287bb5408000199f2143000000000000000400000000000000086
:20408a00000000000000000000000000000000000000000000523c30010c36000000000015
:0d40aa0005000000000000000000ef0614fb
:2040b7000000000000000000000000000000000000000000000000000000000000000000e9
:2040d700000000000000040ffba400000008b8015000000000000000000000000000000006
:2040f700000000000000000000000000000000000000000d000803d001001420000000008c
:0d411700020000000000000000010f040481
:2041240000000000000000000000000000000000000000000000000000000000000000007b
:204144000000000000016000000000000000fa1438000000000000000381f30080000000bd
:204164000000000000000000000000000000000000000000007a3c3000000001db00000079
:0d41840000000000000000016001ef048851
:2041910000000000000000000000000000000000000000000000000000000000000000000e
:2041b1000000000001000000000000040000f0015000000000000004000af36844001000eb
:2041d1000000000000000000000000010000000000000400000003d000100c034e01000088
:0d41f100401000000000010000000f040459
:2041fe000000000000000000000000000000000000000000000000000000000000000000a1
:20421e00000000000001604000000000000ada1438000000000000000000000000000000af
:20423e000400000000000000000000000000000000000000017a1550000000697c40020055
:0d425e00000180000000000160000a540013
:20426b00000000000000000000000000000000000000000000000000000000000000000033
:20428b000000000000000280000000000010b001500000000000000400000000000010006c
:2042ab0034000000007000000000000103c00000000000000a001550001034400040000058
:0d42cb004000000000000100001c05a614ca
:2042d8000000000000000000000000000000000000000000000000000000000000000000c6
:2042f8000000000000020000000000000018da143000000000000000080000000000000066
:2043180000000000000000000000000000000000000004000000000000100000fa0802006d
:0d433800400000000000000206c1cf051c7f
:20434500000000000000000000000000000000000000000000000000000000000000000058
:204365000000000001014000000000040000f8015000000000000004050000000000100090
:2043850000000000004000000000000100000000000004000000000000103400f02c000073
:0d43a500400000000000010142800f0500f3
:2043b2000000000000000000000000000000000000000000000000000000000000000000eb
:2043d20000000000c00206e7a0340300080ada141000000000000000000e00000000002007
:2043f2000000000004000000000000c0000000000003600980000000000014020d1d013288
:0d44120000000b2bd500c0020681ef0588cd
:20441f0000000000000000000000000000000000000000000000000000000000000000007d
:20443f00000000000001437fe53c00000110b8015000000000000000000000000000000c53
:20445f0000000000040000000000000000000000000050010000000000000202cb2e10419a
:0d447f0000000b03c10000c140010f04004c
:20448c000000000000000000000000000000000000000000000000200000000000000000f0
:2044ac000000000000000006d5a000100000500020000000000000000000000000000000f5
:2044cc0002fea0000000000000000000000380000000800d0096099000000002fa004000b5
:0d44ec0008000dabd50000e000000000004e
:2044f9000000000000000000000000000000000000000000000000000000000000000000a3
:2045190000000000000002fcb1a0000800000380000000000000000009000000000000009f
:204539000250f5000000000000000000000400000000000100721190000000004050400033
:0d45590000000d81412000000280000000e4
:20456600000000000000000000000000000000000000000000000000000000000000000035
:20458600000000000001e324a00000800000323c200000000000008008007b001800000044
:2045a6007deea5000000000000000030000040af0401802981000000060000000000002869
:0d45c60000000000000000080000000000e0
:2045d3000000000000000000000000000000000000000000000000000000000000000000c8
:2045f300000000000000201ee20000000000083c00000f40000000000100780290000000ea
:204613002bf0aa0000000000000000000003410f0502004189000000080014000000000082
:0d4633000000000000000004000000000076
:2046400000000000000000000000000000000000000000000000000000000000000000005a
:2046600000000000000146418800200008005a3c2800000000000000018c000000000000b7
:204680000618e20200000000000000000007808f04000000000000000c00000000000000f2
:0d46a00000f0003bc10200020295c0500076
:2046ad000000000000000000000000000000000000000000000000000000000000000000ed
:2046cd00000000000001667d040200000500003c0000000000000000001000000000001c76
:2046ed003a50d10000000000000000000000010f050000000a0000000c0000000000000027
:0d470d0000580043c10000014000005000b2
:20471a0000000000000000000000000000000000000000000000000000000000000000007f
:20473a000000000000000300000000000000723c2800014000000000000152a81800002012
:20475a00000000000000000000000000000380ef04000000000000000000200000000000a9
:0d477a000000a000000004000034900008c2
:20478700000000000000000000000000000000000000000000000000000000000000000012
:2047a7000000000000000000000000000f00083c0000208000000000000804281000001c9f
:2047c7000000000000000000000000040004000f04000000000000000000140000000000a3
:0d47e7000000e00000000a014297b0400011
:2047f4000000000000000000000000000000000000000000000000000000000000000000a5
:204814000000000000006000000000000000fa017000000000000000078033f9d400000032
:2048340000000000000001a0000000000000000000000020009accd000000000000000006d
:0d4854000000000000000000000000000057
:20486100000000000000000000000000000000000000000000000000000000000000000037
:2048810000000000000003c000000000000bb03d50000000000000000780163050000000ef
:2048a1000000000000000000000000000000000000000000007604900000000000000000ed
:0d48c10000000000000000000000000000ea
:2048ce000000000000000000000000000000000000000000000000000000000000000000ca
:2048ee000000000000000000000000000000780020004a0000000000201900000000015638
:20490e00000000000000001f7bd40004140001af06000001809fd8900000060000000000bf
:0d492e0000000000000000c1e000000000db
:20493b0000000000000000000000000000000000000000000000000000000000000000005c
:20495b00000000000000000000000000000e08000000800000000000500f000000000080c7
:20497b0000000000000000afc280000a8800010f04000000001b191000000200000000003f
:0d499b0000000000000000002000000000ef
:2049a8000000000000000000000000000000000000000000000000000000000000000000ef
:2049c8000000000000000394b5000001051e0040200000000000000007815f991a00000065
:2049e800396aa000000001eb7a940000004000ef04000000000000000000007000000000cf
:0d4a08000000100000000008000000000089
:204a1500000000000000000000000000000000000000000000000000000000000000000081
:204a35000000000000014436e2000000009003c000000000000000000f8d7a095000000042
:204a550067d0f5000000000bc15400000002010f040000000000000000000040000000009f
:0d4a75000000b00000000014000000000070
:204a8200000000000000000000000000000000000000000000000000000000000000000014
:204aa200000000000002c000c3f02300081c78002000000000000300081c17509000000082
:204ac2007c18c502000001b0000000c00000018f04030021000000000c0000000000003014
:0d4ae2000000002bc10000080000000000d3
:204aef000000000000000000000000000000000000000000000000000000000000000000a7
:204b0f00000000000001600103f000000110080000000000000000000f103758d800000092
:204b2f006950ca00000000e0000000000000010f040000500000000000000000000000009f
:0d4b4f0000000003c1000034000000000061
:204b5c00000000000000000000000000000000000000000000000000000000000000000039
:204b7c000000000000006000000000000000521550000000000000000000f23d7000001e45
:204b9c0060000000000000000000000000001ee0560800030007bc10000000041af0500009
:0d4bbc0000f187680dc000000001af05008a
:204bc9000002000000000000000000000000000000000000000000000000000000000000ca
:204be90000000000000162800000000000000015510000000000000380007017f0800000e9
:204c090000000000000000000000000000000f00f400000000003c100000003400f04000d8
:0d4c2900001807e01f00000003400f04000a
:204c360000000000000000000000000000000000000000000000000000000000000000005e
:204c56000000000020000004e70600800000000000000000000000800000f21430010000f6
:204c7600396a050028000000000000a0140780000000800000033c10020000000cf06008de
:0d4c96003400000295002000e3008f0400b0
:204ca3000000000000000000000000000000000000000000000000000000000000000000f1
:204cc3000000000000000034d3140000000000000000000000000000000030015001003400
:204ce300400005000000000000000000080400000000000000043c100000000010f04000d0
:0d4d030002000f016900000000010f060012
:204d1000000000000000000000000000000000000000000000000000000000000000000083
:204d30000000000000000004c4340100080a000000000000000000000019d2143000011410
:204d500000000000300000000000000200000000000000071a073c14040000000af0400457
:0d4d700000000023c100400043018f04003b
:204d7d00000000000000000000000000000000000000000000000000000000000000000016
:204d9d00000000001002c2a5d23603000110000000000000000000000008780150000c0282
:204dbd00000000003000000000000000000000000000008090003c100400003810f04004ca
:0d4ddd0000000043c100c80020010f0500c8
:204dea000002000000000000000000000000000000000000000000000000000000000000a7
:204e0a000000000000000000000000000000000000000000000000000181d21430000014dc
:204e2a00697ea500000100007bc1000800003dca500010000002bc10000020001cf04004f2
:0d4e4a002800b07bc10004020780af050006
:204e570000000000000000000000000000000000000000000000000000000000000000003b
:204e7700000000000000000000000000000000000000000000000000000838015000000288
:204e97004070aa000002000003c1040400002d0aa004200000003c1001003c0010f040000f
:0d4eb7000000b043c1000002c4000f040061
:204ec4000000000000000000000000000000000000000000000000000000000000000000ce
:204ee40000000000000002c0000000000000000000000000000000000000fa1430000000ae
:204f04000000000000000000000000000006acef520000001b102950400000040ef0400470
:0d4f24000080006bc180000800018f0410a8
:204f31008000000000000000000000000000000000000000000000000000000000000000e0
:204f510000000000000002000000000000000000000000000000000000007001500000007d
:204f710000000000000000000000000001c02e0a000002000a0029500000003c00f0400036
:0d4f910000b00043c180000000000f0400cc
:204f9e000000000000000000000000000000000000000000000000000000000000000000f3
:204fbe000000000000000000000000000000000000000000000000000598da143000001cfc
:204fde0004180f0000000000000000000006c000000028058007bc10000020000ef04000e4
:0d4ffe0028000000000000000001af0410ba
:20500b00000000000000000000000000000000000000000000000000000000000000000085
:20502b000000000000000000000000000000000000000000000000000000300150000000e4
:20504b0024000f000000000000000000000340000000100000043c14000e3c2400f04000cd
:0d506b00380000000000000400010f0400e8
:20507800000000000000000000000000000000000000000000000000000000000000000018
:205098000000000000006000000000000000000000000000000000000980da1430000000f1
:2050b80002f8f500000000e0000000000360418f0480000000033c10000004001ef04000b1
:0d50d80000181000000000000701ef041098
:2050e50080000000000000000000000000000000000000000000000000000000000000002b
:205105000000000000000000000000000000000000000000000000000100780150000000c0
:2051250003d0a00000000000000000000143010f0404000000043c140002260000f04100ee
:0d514500000480000000000000010f0400c5
:2051520000000000000000000000000000000000000000000000000000000000000000003d
:2051720000000000c00000000a5403000000000000000000000003280d80fa141000000026
:20519200601ca30230001000000000c000000000000300081a02bc100c0020001cf0403140
:0d51b200080085b28000c0b40040ef04008a
:2051bf000000000000000000000000000000000000000000000000000000000000000000d0
:2051df00000000000000001405a404000000000000000000000000100100b002900000009c
:2051ff00425053080038080000000000000380000000000500043c1000001c0000f040023d
:0d521f0080010183d400006003810f0500b1
:20522c00000000000000000000000000000000000000000000000000000000000000000062
:20524c00000000000000000000000000010000000000000000000000050a9efdc0000020b7
:20526c0068ccf500001270092f8800000800000000000005c1fe000400000005c850c0000a
:0d528c0000018000000000000001cf0400c0
:205299000002000000000000000000000000000000000000000000000000000000000000f3
:2052b900000000000000000000000000000000000000000000000000050a92ffc000001461
:2052d9004020f5000000f8076794400000000000000000000adb48000100003dc0054200b4
:0d52f900000000000000002000000f060073
:20530600000000000000000000000000000000000000000000000000000000000000000087
:205326000000000000000000000000000000000000000000000000800d0072bd50820020b9
:20534600004cff02000000100000002000001caf0400000180723000820000004850e001dd
:0d536600008000000000a80000200a540094
:2053730080000000000000000000000000000000000000000000000000000000000000009a
:20539300000000000000000000000000000000000000000000000000010af03c5000001c57
:2053b30003c0ef00000000e00000000000000d0fa4000000007c368000000000e00540022f
:0d53d3008070000000000400001405a5001b
:2053e0000000000000000000000000000000000000000000000000000000000000000000ad
:20540000000000000000000000000000001a000000000000000000000180123fc0000000e0
:2054200068fc3422000058000000000000069ce055080007801016880c0000654850c0007d
:0d544000008003ba9400c4200000000000aa
:20544d008000000000000000001000000000000000000000000000000000000000000000af
:20546d0000000000040000000000000000100000000000000000000000801677c00000003e
:20548d0000203400000000f00000000000003605f50000000000168005000021e0054000aa
:0d54ad0000f00bc15400ca00000000000018
:2054ba000003000000000000000000000000000000000000000000000000000000000000cf
:2054da00000000000000000000000000010056940800000000000000000a73010080402061
:2054fa0003eaf302000001a5a814000003e60000000000038e568280000006054850c00019
:0d551a000004a8628c0808000000000000da
:20552700000000000000000000000000000000000000000000000100000000000000000063
:205547000000000000000000000000000080183c02000000000000000500000100008014d4
:205567000170fb00000000008014000000600000000000009030000400000020e0054000bb
:0d558700000003014c000400400000000083
:205594004000000000000000000000000000000000000000000000000000000000000000b7
:2055b40000000000000000000000000000000000000000000000000008008791d880002639
:2055d40063e83d420000300000000000006017fa5600000f9b7729c0c0001e01e850c00015
:0d55f4000000f000000000000000000000ba
:20560100000200000000000000000000000000000000000000000000000000000000000087
:2056210000000000000000000000000000000000000000000000002001001022f000002600
:20564100405034400005080000000000000034a5641000050a7822c00000003dc005400040
:0d5661000000d0000000000000000000006c
:20566e0000000000000000000000000000000000000000000000000000000000000000001c
:20568e0000000000000000000000000000000000000000000000000001809afc900000064f
:2056ae00606fe5400200000000000000000700000000000b1b3b0140000000616850c00064
:0d56ce00003885e294000000c000000000dc
:2056db000000000000000000000000000000000000000000000000000000000000000000af
:2056fb000000000000000000000000000000000000000000000000000000733df2400000ad
:20571b00024cc040010090000000000000000000000000250a00014000000000c00540001a
:0d573b0000090b82a8000000000000000023
:20574800000000000000000000000000000000000000000000000000000000000000000041
:20576800000000000000000000000000000000000000000000000000018100000000004659
:2057880004000000010000000000002003606ec0f008100f0ebb420000003e016850c0046e
:0d57a8000100092900080000078000000032
:2057b500800000000000000000000000000000000000000000000000000000000000000054
:2057d50000000000000000000000000000000000000000000000000000080000000000802c
:2057f50024000000000090000000000001423605f00020078f7f400000000501e0054000d2
:0d5815000200ef82142100000000000000de
:20582200000000000000000000000000000000000000000000000000000000000000000066
:2058420000000000000000000000000000000000000000000000030000000000000c002017
:2058620023efa14000001001700000c00200200a54000005815682884c002003c8504000c5
:0d5882000001c0000000d000000000000088
:20588f000000000000000000000000000000000000000000000000000000000000000000f9
:2058af000000000000000000000000000000000000000000000000000700000000000004ce
:2058cf0042ea9140000008073040040003c02c05a40000000830000000000402c00a400059
:0d58ef0000010000000000000000000000ab
:2058fc0000000000000000000000000000000000000000000000000000000000000000008c
:20591c000000000000000000000000004000000000020000000000000000fb828800002004
:20593c00000000000000001000000000100000af0400000019874200000220040000000070
:0d595c00000000000000000000400a55009f
:2059690000000000000000000000000000000000000000000000000000000000000000001e
:20598900000000000000000000000000200000000000000000000000000054000000003c4e
:2059a9000000000000000080000000000800010f040000000a77410000001c300000000034
:0d59c9000000000000000000034c05a400d9
:2059d6000000000000000000000000000000000000000000000000000000000000000000b1
:2059f600000000000000000000000000000000000000000000000000000000000000000091
:205a16006800000028000017274400a0000000af040008001892a9008a00000008f04028c6
:0d5a3600800000000000b0000000cf040060
:205a4300000000000000000000000000000000000000000000000000000000000000000043
:205a6300000000000000000000000000030000000000000000000000000000000000000020
:205a830040000000000000b7f79400000000010f04005000009829c00000000010f040015b
:0d5aa300010000000000001000010f0404cd
:205ab0000000000000000000000000000000000000000000000000000000000000000000d6
:205ad0000000000000000000000000000000000000000000000000000000000000000000b6
:205af000000000000000000bfbd580c0000380cf0400000d9a3a79400400007800000030df
:0d5b100000008000000050000381ef040041
:205b1d00000000000000000000000000000000000000000000000000000000000000000068
:205b3d00000000000000000000000000000000000000000000000000000000000000000048
:205b5d00000000000000000b03fd04c00007c00f04000005005ec6800c80004000000030da
:0d5b7d00000100000000c40000000f040043
:205b8a000000000000000000000000000000000000000000000000000000000000000000fb
:205baa00000000000000000000000000000000000000000000000000070000000000000cc8
:205bca0002dba7008000000ba7e000086000200a54000000187f0280000104000000000021
:0d5bea0000000000000010001001cf0400ba
:205bf70000000000000000000000000000000000000000000000000000000000000000008e
:205c17000000000000000000000000000000000000000000000000000080000000000000ed
:205c370002e9470000380007f3c0200400001c05a40000100004028000008000000000002a
:0d5c5700000000000000080000010f040024
:205c6400000000000000000000000000000000000000000000000000000000000000000020
:205c84000000000000000000000000000000f3828400000000000000000000000000000007
:205ca4000400000000008003be9c00000040000000000000003aac808000040000000000d5
:0d5cc400040000000000000000000a540071
:205cd1000000000000000000000000000000000000000000000000000000000000000000b3
:205cf10000000000000000000000000000001400001000000000000000000000000000006f
:205d1100280000000000f009a62c0000000000000000000040783c0000000000000000008b
:0d5d31000200000000000000c31c05a400db
:205d3e00000000000000000000000000000000000000000000000000000000000000000045
:205d5e00000000000000000000000000000000000000000000000000000086820400000019
:205d7e0020000000000571d1a744000000000000000000001b5242000002000040a54002db
:0d5d9e000000000000001a0000008f04004b
:205dab000000000000000000000000000000000000000000000000000000000000000000d8
:205dcb00000000000000000000000000000000000000000000000000000073c100000c0078
:205deb0064000000000209d7f794000000000000000008000a0742000000000000a5c00007
:0d5e0b00000000000000000003410f04042f
:205e180000000000000000000000000000000000000000000000000000000000000000006a
:205e380000000000000000000000000000000000000000000000000000000000000000004a
:205e580000000000000000e3ba9c00000007800000004005801a0940800000000cf0400086
:0d5e780000008000000000004001ef041059
:205e85000000000000000000000000000000000000000000000000000000000000000000fd
:205ea500000000000000000000000000070900000000000000000000000e000000000000bf
:205ec5000000000000009009b22c0100000400000000000040dc36800000000000f040003f
:0d5ee500000000000000000020010f04007c
:205ef200000000000000000000000000000000000000000000000000000000000000000090
:205f1200000000000000000000000000000000000000000000000000080000000000000067
:205f3200025c0a0030000003274400ca0000000000000005800383000c0000001af04030ee
:0d5f52008800002bc140c00000400000008e
:205f5f00000000000000000000000000000000000000000000000000000000000000000022
:205f7f000000000000000000000000000000000000000e00000000000b00000000000024c5
:205f9f0001d0000040087007779401040040000000000000000283000040000000f0c0018c
:0d5fbf0000000043c1000040c3400000008e
:205fcc000000000000000000000000000000000000000000000000000000000000000000b5
:205fec00000000000000000000000000000000000000000000000000000000000000000095
:20600c00000ef04080008017b600000000607fe0100000000173c3e00000140259c920002b
:0d602c0000001d60014200000000ef0400b4
:20603900000000000000000000000000000000000000000000000000000000000000000047
:20605900000000000000000000000000000000000000000000000000000000000000000027
:206079000000f0400000d0f7340000000003c5ea70000000080783c0000000024bc3000058
:0d60990000008343d544000000000f0410f8
:2060a6000000000000000000000000000000000000000000000000000000000000000000da
:2060c60000000000000000000000000000000000000000000000008000000000000a000030
:2060e600781af040a8001805a20008a002c70eca142000070077c3e00000140218e8002895
:0d6106000000a06bc100a0000040ef0400ed
:2061130000000000000000000000000000000000000000000000000000000000000000006c
:2061330000000000000000000000000000000000000000000000000000000000000000004c
:206153000010f04000000000c200000003c40705e10400158007c3c00000002858d40000ff
:0d61730000010003c100000013400f0410e4
:206180000000000000000000000000000000000000000000000000000000000000000000ff
:2061a00000000000000000000000000000000000000000000000000000000000000c0000d3
:2061c0000018f0400000000000000000040206e700000005183703e000000000000000024b
:0d61e00085800033c10040000780cf06001d
:2061ed00000000000000000000000000000000000000000000000000000000000000000092
:20620d0000000000000000000000000000000000000000000000000000000000000c000065
:20622d000010f041000070c00000000000043dcf000000000a0643c00000000000000000bd
:0d624d0020100003c104c00004010f040074
:20625a00000000000000000000000000000000000000000000000000000000000000000024
:20627a00000000000000000000000000000000000000000000000000000000000000000004
:20629a00200ef040010000e00000000002407f903000000998d056a0010140280000000053
:0d62ba0080780023c18000000001ef060085
:2062c7000000000000000000000000000000000000000000000000000000000000000000b7
:2062e700000000000000000000000003800000000000000000000000000000000000000014
:206307004000f041000001000000000000623cea300000050a5a29400100800000000000f9
:0d63270000000043c100000000000f040052
:20633400000000000000000000000000000000000000000000000000000000000000000049
:20635400000000000000000000000000000000000000000000000000000000000000020027
:206374000200a5410008580000000000000057aa1420000d80f856a000000000405a000077
:0d6394000118003bc10400400301cf0500cb
:2063a1000000000000000000000000000000000000000000000000000000000000000000dc
:2063c1000000000000000000000000000000000000000000000000000000000000000000bc
:2063e10003c05ac000000000000000000142350ad00000030db2294000000000005a1000d8
:0d64010000000003c100000000010f0400b6
:20640e0000000000000000000000000000000000000000000000000000000000000000006e
:20642e0000000000000000000000000000000000000000000000000000000000000000004e
:20644e0000000000000078093e8d05000e0045f8000400011e5f03e000000000000000002d
:0d646e0000800073c10004000301ef060070
:20647b00000000000000000000000000000000000000000000000000000000000000000001
:20649b000000000000000000000000000000000000000000000000100000000000000000d1
:2064bb000000000000180883600c8002024307900000000d1e02c3c000080000000000009c
:0d64db0000f0c043c120020004010f0400c6
:2064e800000000000000000000000000000000000000000000000000000000000000000094
:20650800000000000000000000000000000000000000000000000000010e00000000002440
:20652800381ef040000051e5297c0000146326e250000009813816a00000000058aa0000a9
:0d6548000000000000000000c7000a540021
:20655500000000000000000000000000000000000000000000000000000000000000000026
:20657500000000000000000000000000000000000000000000000000001000000000001ed8
:206595004000f04102000100817c040001628cf5a00000010fb2a9402000000000aa000078
:0d65b5000030000000000000403c05a48004
:2065c2000000000000000000000000000000000000000000000000000000000000000000b9
:2065e2000000000000000000000000000000003fcc4000000000030000007395540c0000e3
:20660200200000000020800000000040006380000000000f0f5b43e00000000000000030c9
:0d662200000008029500c400c3818f041021
:20662f0000000000000000000000000000000000000000000000000000000000000000004b
:20664f000000000000000000000000030000003fc00000000000000000400415502000045c
:20666f004000000000005000000000c002e78000000000019a0ac3c000000000000000002a
:0d668f000000df0169021a0020010f040065
:20669c000000000000000000000000000000000000000000000000000000000000000000de
:2066bc000000000000000000000000000000000000000000000000000000000000000000be
:2066dc0000000000000000180295000802601eb01000000780023c00000000001cf0400492
:0d66fc00000003629420000007200a5400f3
:20670900000000000000000000000000000000000000000000000000000000000000000070
:20672900000000000000000000000000000000000000000000000000000000000000000050
:2067490000000000000000e70169000083c00eba7000000089003c050000000000f0410069
:0d676900205007c154000000001405a410ca
:20677600000000000000000000000000000000000000000000000000000000000000000003
:2067960000000000000000000000000000000000000000000000028000000000000a014016
:2067b60000000000280500c8029500a003d00eca142000081ef644000a4000000cf04028aa
:0d67d6003081c07bc100a4e80001cf0400a9
:2067e300000000000000000000000000000000000000000000000000000000000000000096
:206803000000000000000000000000000000000000000000000000000000000000002080d5
:2068230000000000001a00930169000001c00705e0040007005240040020000000f041009f
:0d68430000100043c100181400010f0500f3
:20685000000000000000000000000000000000000000000000000000000000000000000028
:20687000000000000000000000000000000000000000000000000000000000000004000004
:2068900078000000100200803bc10000120006f25000000d9c76a9c00c00000000000000f4
:0d68b00000000000000040e00600ef0600c0
:2068bd000000000000000000000000000000000000000000000000000000000000000000bb
:2068dd0000000000000000000000000000000000000000000000000000000000000c04008b
:2068fd00400000001004010003c1000000c004fa50000001109ee2c00c00000000000001f6
:0d691d00000000000000c00404000f040092
:20692a0000000000000000000000000000000000000000000000000000000000000000004d
:20694a0000000000000000000000000000000000000000000000000000000000000000002d
:20696a00000cf0400005000073c1000800039ed03000000381fe9c0000a000000000000031
:0d698a0004000fe28020142040000a540099
:206997000000000000000000000000000000000000000000000000000000000000000000e0
:2069b7000000000000000000000000000000000000000000000000000000000000000000c0
:2069d7000010f0410000040003c10004000014fa300000090e32bc00000000000000000050
:0d69f70002000903d4001200002405a600d0
:206a0400000000000000000000000000000000000000000000000000000000000000000072
:206a24000000000000000000000000000000000000000000000000000000000000000280d0
:206a440004000000000000003bc100201066ccca1420000000bad0c0400020000000000028
:0d6a64000070c033c10000e0000000000021
:206a7100000000000000000000000000000000000000000000000000000000000000000005
:206a9100000000000000000000000000000000000000000000000000000000000000016480
:206ab100380000000000000043c1000001e21d05e0040000007370c000001c0000000000e1
:0d6ad10000000003c10000000000000000f4
:206ade00000000000000000000000000000000000000000000000000000000000000000098
:206afe000000000000000000000000000000000000000000000000000799000000000000d8
:206b1e00000cf0410001b0002bc10000100000000000000f8057280000000e000000000051
:0d6b3e000001803bc1000a00004000000083
:206b4b0000000000000000000000000000000000000000000000000000000000000000002a
:206b6b00000000000000000000000000000000000000000000000000000f000000000000fb
:206b8b000000f0c00002300043c300000002800000000809880028000000000000000000bf
:0d6bab0000009043c100000402c000000083
:206bb8000000000000000000000000000000000000000000000000000000000000000000bd
:206bd80000000000000000000000000000000000000000000000000000000000000000009d
:206bf800000000000000801063c1000002400000000000010000000000000078000000000e
:0d6c18000018c00000000400000000000093
:206c250000000000000000000000000000000000000000000000000000000000000000004f
:206c450000000000000000000000000000000000000000000000000000000000000000002f
:206c6500000000000100b0d043c10000016000000000000008000000000000000000000021
:0d6c85000001000000000000c00000000041
:206c92000000000000000000000000000000000000000000000000000000000000000000e2
:206cb200000000000000000000000000000000000000000000000300000cff71904c0080e7
:206cd200000000003000100063c100408043c00000000007000728000c0000000000003009
:0d6cf2000019c9715504c04c0000000000dd
:206cff00000000000000000000000000000000000000000000000000000000000000000075
:206d1f0000000000000000000000000000000000000000000000000000103f665840010006
:206d3f00000000000000080043c3004060074000000000008010140000000000000000009b
:0d6d5f0000010b402901001400000000009d
:206d6c00000000000000000000000000000000000000000000000202000000000000000003
:206d8c0000000000000000000000000000000000000000000000000008185383e000000011
:206dac00000af040000000937e9c020003e646e0f8002800007628000000206200a54000aa
:0d6dcc000601f0000000000976e4a40004b8
:206dd900800200000000000000100000000000000000000000000000000000000000000008
:206df9000000000000000000000000000000000000000000000000038f0e0203c000000015
:206e19000010f040000000d5662c000000420080f0000000000c280000000403c05a40006b
:0d6e39000501c0000000081433bfb10000c7
:206e460000000000000000000000000000000000000000000000000000000000000000002c
:206e6600000000000000000000000000000c000000000000000000000f8053c3e00aae0cb7
:206e8600001af040280000080295a00001c616e0f800100508baa0008a2020005e5000286f
:0d6ea6000098077c00000400002ea00220d0
:206eb30080000000000000000000000000000000000000000000000000000000000000003f
:206ed3000000000000000000000000000000000000000000000000000f800203c00000004b
:206ef3000010f0c0000000df016904000023c2c0f000200010140000000004001050000035
:0d6f1300301009f8a0040a0010170010004b
:206f2000300000000000000000000000000000000000000000000000000000000000000021
:206f4000000000002000000000000000100000000000000000000000098f5016a00401401e
:206f60007a00a54002b0381379400000100204e0f80000101cfa908080800001cef74210c0
:0d6f800000808371008804e362d6b0000039
:206f8d001000000000000000000000000000000000000000000000000000000000000000d4
:206fad000000000000000000000000002000000000000000000000000118ba69400c00001c
:206fcd0079c05a40010000d04140000004040190f000000510b0304040420003d0e3401039
:0d6fed0000b00f800000020066f4d100101b
:206ffa00000300000000000000000000000000000000000000000000000000000000000074
:20701a000000000000000000000000000000ff02840000000000000009191b83e000001e13
:20703a00200ef04000009805a8400804000386e0f80010000a82a00000a0000000a5400025
:0d705a0000000fe7f8a0001407b4805000fc
:20706700000000000000000000000000000000000000000000000000000000000000000009
:2070870000000000000000000000000000009800080000000000000001080643c000000037
:2070a7000000f0c00000300d0060000810040390f00028000097d00000400003c05a4001b0
:0d70c70000000137fc250003400d00000013
:2070d40040000000000000000000000000000000000000000000000000000000000000005c
:2070f400000000000000000000000000000000000002000000000000001f5f83e000000099
:207114000200a540000018097004080620670df0f8000000009fa000c000000008f040001e
:0d713400000187a815c004000017c4000862
:2071410000020000000000000000000000000000000000000000000000000000000000002c
:207161000000000000000000000000000000000000000e0000000001001a02c3c000000060
:2071810003c05a4000000003829c0004000342c0f000000000340000000c000010f04000f7
:0d71a1000000008015000a034034a000002b
:2071ae0000040030000000000000000000000000000000000000000000000000000000008d
:2071ce0000000000000000000000000008000000000000000000000009813fc3e0004000ed
:2071ee00001af0400000100f78610c000a674df0f80000080100000000010001fc50000036
:0d720e0000598029418000014637e0011041
:20721b00003c00000000000000000000000000000000000000000000000000000000000017
:20723b00000000000000000000000000070000000000000000000000070a0303c000200035
:20725b000000f0400100780580e10000144202c0f00028090e000000000004000050000069
:0d727b00301005428100100007ee0a0018d7
:207288000000000000000000000000000000000000000000000000000000000000000000e6
:2072a8000000000000000000000000000000000000000e00000000000d9ad856a00000043f
:2072c800000ef040029001800000000002664ff0f80000000176600000000025def74201a2
:0d72e8000000a3e028400014001e801024c8
:2072f5008000000000000000000000000000000000000000000000000000000000000000f9
:207315000000000000000000000000000000000000000000000000000500baa9400000248c
:207335000000f0400000000000000008026643d0f00000000edec00000002423d0e3c040ef
:0d7355000000008028000000100300100060
:2073620000000000000000000000000000000000000000000000000000000000000000000b
:207382000000000000000000000000000008000000000000000000000d9a5f83e00c00046a
:2073a2002200a540328070192b440004166655f0f8000000000000000c000e3418f0403097
:0d73c20000508071410110154384cf002060
:2073cf0000000000000000000000000000000000000000000000000000000000000000009e
:2073ef0000000000000000000000000000000000000000000000000005000f43c000000067
:20740f0000405a40000000efb394800882764390f000000f0c0000000000002000f040009f
:0d742f000051f5028100000023860f20109f
:02743c0000004e
:02743e0011013a
:02744000010148
:2074420000000000000000000000000000000000000000000000000000000000000000002a
:2074620000000000000000000000000000000000000000000000000000000000000000000a
:207482000000000002000000000000000000000000000000000000000000000000000000e8
:0d74a20000000000000000000000000000dd
:2074af000000000000000000000000000000000000000000000000000000000000000000bd
:2074cf0000000000000000000000000000000000000000000000000000000000000000009d
:2074ef0000000000000000000000000000000000000000000000000000000000000000007d
:0d750f00000000000000000000000000006f
:20751c000000000000000000000000000000000010000000000000400000000000000000ff
:20753c000000000004000000000000100000000000004000000000000000000000000000db
:20755c0000000000010000000000000000000000000000000000000000000000018000008d
:0d757c000000000000000000000000000002
:207589000000000000000000000000000000000000000000000000000000000000000000e2
:2075a9000000000000000000000000000000000000000000000000000000000000000000c2
:2075c9000000000000000000000000000000000000000000000000000000000000000000a2
:0d75e9000000000000000000000000000095
:2075f600000000000000000000000000000000000000000000000000000000000000000075
:20761600000000000000000000000000000000000000000000000000000000000000000054
:2076360000000000020000000800000000000000000000000000000000000000000000002a
:0d7656000000000000000000000000000027
:20766300000000000000000000000000000000000000000000000000000000000000000007
:207683000000000000000000000000000000000000000000000000000000000000000000e7
:2076a3000000000000000000040000000000000000000000000000000000000000000000c3
:0d76c30000000000000000000000000000ba
:2076d0000000000000000000000000000000000020000000000000800001000000000000f9
:2076f0000400000000000010000000200000400000004000010000000000000000000000c5
:20771000000000000000340000000000000000000000000000000000000000000000000025
:0d773000000000000000000000000000004c
:20773d0000000000000000000000000000000000000000000000000000000000000000002c
:20775d00000000000800000000000000000000000000000000000000000000000000000004
:20777d000000000000002000000000000000000000000000000000000000000000000000cc
:0d779d0000000000000000000000000000df
:2077aa0000000000000000000000000000000000000000400000000000030000000000007c
:2077ca000800000000000030000000000000c00000000000030000000000000000000000a4
:2077ea0000000000000000000000000000000000000000000000000000000000000000007f
:0d780a000000000000000000000000000071
:20781700000000000000000000000000000000000000000000000000000000000000000051
:20783700000000000000000000000000000000000000000000000000000000000000000031
:20785700000000000000000000000000000000000000000000000000000000000000000011
:0d7877000000000000000000000000000004
